:020000040000fa
:080000000002040000000000f2
:020000040000fa
:100008009a0200009a0200009a0200009a02000078
:100018009a0200009a0200009a0200009a02000068
:100028009a0200009a0200009a0200009a02000058
:100038009a0200009a0200009a0200009a02000048
:020000040000fa
:020000040000fa
:100400000f8020000eff27000e0188000000000072
:10041000000020000000e000020032000001200087
:10042000200288000c000700a064200001002000ca
:1004300011000700000020000000e0000200320070
:10044000000002000000000044060200000000005e
:100450000040da000000fe004440a9000000200037
:100460000000e0000300320000002000a00188002e
:100470004440a80000000600910188008000780038
:100480000000eb0015003700e280400032a0b4000d
:100490009101ba00e280400032a0b4009102ba009b
:1004a000e280400032a0b4000002eb00472bde00e7
:1004b000f507b200602ce10004003a000059eb009f
:1004c0008301e900fdff3e00040037006128e100e0
:1004d000010032000082eb00040007001101ba00a5
:1004e0000200e000e8ff3a00000006003159ba00bf
:1004f0008301e9000c0032002159ba008301e900b0
:10050000080032000400e00003003a00e2804000ee
:1005100032a0b400f5ff370011d9ba008301e90019
:10052000faff3a008100e800e180400032a0b40008
:0c053000000006000040da000000fe00a1
:020000040000fa
:10053c000200fa00004f780091168000f0fc2f00aa
:10054c000080600090168800e116800000f02f00fb
:10055c0000806000e01688009e00fb00e016800022
:10056c0001007000e0168800d6a2a900cbe2a90019
:10057c00d682a8000000000000000000000000006f
:10058c0000000000d682a90000d420003100200019
:10059c00ac0107000080fa00000006000000fa0021
:1005ac00007c220091002000a6010700e1168000cb
:1005bc0000f02f0000806000e0168800d6a2a90091
:1005cc00cbe2a900d682a900c116800000f02f0052
:1005dc0000806000c0168800d2a2a900c7e2a90062
:1005ec00d282a900e116800000f02f00008060008c
:1005fc00e0168800e11680008003200001007000e6
:10060c00e0168800d682a800000000000000000060
:10061c000000000000000000d682a90000d42000d9
:10062c003100200087010700e116800000f02f0048
:10063c0000806000e0168800e11680008003200036
:10064c0001007000e0168800d682a80000000000af
:10065c00000000000000000000000000d682a9008d
:10066c0000f421000100200076010700e116800053
:10067c0000f02f0000806000e0168800e11680007a
:10068c008003200001007000e0168800d682a800cc
:10069c00000000000000000000000000000000004e
:1006ac00d682a90000f4210001002000650107009a
:1006bc0080c3b3009eff0700c0c0b3009cff0700bf
:1006cc0060c0b3009aff070010c0b30098ff07008a
:1006dc000080fa00000006000200fa00004f7800cb
:1006ec0091168000f0fc2f000080600090168800ae
:1006fc00d6a2a900cbe2a800e116800000f02f00e2
:10070c0000806000e01688009e00fb00e016800070
:10071c0001007000e0168800d682a80000000000de
:10072c00000000000000000000000000d682a900bc
:10073c00cbe2a90000e823000100200041010700e2
:10074c000080fa00000006000200fa00000f78009a
:10075c00040037001e00780010407800deff070010
:10076c001e0fe8001e007800104078000004e00026
:10077c00f8ff3a000080fa00000006000200fa00c0
:10078c00004f780000c8b3001e40700068ff0700df
:10079c000080fa00000006000000fa0000c1b3005f
:1007ac0063ff07000080fa00000006000000fa005a
:1007bc0010c0b3005eff07000080fa0000000600c6
:1007cc000000fa0020c0b30059ff07000080fa00b7
:1007dc00000006000000fa0000ccb30054ff070034
:1007ec000080fa00000006000200fa00004f7800ba
:1007fc001e40780063406000c040b3004cff07000f
:10080c000080fa00000006000200fa00004f780099
:10081c001e4078000004e00003003200c0c1b300a9
:10082c0043ff07000200370080c1b30040ff070000
:10083c000080fa00000006000000fa00911680000b
:10084c00f00f2f0000806000901688000080fa00e6
:10085c00000006000000fa00d702a800d722a90069
:10086c00d742a900d762a900803e200001002000d9
:10087c00f40007004116800000102000008060008a
:10088c000000e0000200320010c3b3007f0037000c
:10089c004116800000202000008060000000e00075
:1008ac000200320040c3b3007800370041168000cc
:1008bc0000402000008060000000e00002003200d8
:1008cc0070c3b30071003700411680000080200017
:1008dc00008060000000e0000200320010c4b30091
:1008ec006a003700d702a900d722a800d742a90076
:1008fc00d762a900803e200001002000d100070033
:10090c004116800000102000008060000000e00014
:10091c000200320020c3b3005c0037004116800097
:10092c0000202000008060000000e0000200320087
:10093c0050c3b30055003700411680000040200022
:10094c00008060000000e0000200320080c3b300b1
:10095c004e003700411680000080200000806000af
:10096c000000e0000200320020c4b3004700370052
:10097c00d702a900d722a900d742a800d762a900a4
:10098c00803e200001002000ae00070041168000d0
:10099c0000102000008060000000e0000200320027
:1009ac0030c3b3003900370041168000002020000e
:1009bc00008060000000e0000200320060c3b30061
:1009cc00320037004116800000402000008060009b
:1009dc000000e0000200320090c3b3002b0037008f
:1009ec004116800000802000008060000000e000c4
:1009fc000200320030c4b30024003700d702a90033
:100a0c00d722a900d742a900d762a800803e2000b7
:100a1c00010020008b000700411680000010200010
:100a2c00008060000000e0000200320060c4b300ef
:100a3c001600370041168000002020000080600066
:100a4c000000e0000200320050c4b3000f00370079
:100a5c004116800000402000008060000000e00093
:100a6c000200320040c4b300080037004116800079
:100a7c0000802000008060000000e00002003200d6
:100a8c0030c4b30001003700a0c7b3000080fa00e7
:100a9c00000006000000fa00c642a900ca42a800e5
:100aac004342a800101280000000a0000010a1001a
:100abc0010128800101280000020a0000030a0004e
:100acc000040a0001012880042a2a80042c2a80058
:100adc004302a90041e2a8000080fa0000000600d1
:100aec000200fa00000f78008540a900ca42a90054
:100afc00f0ff20009e006000000023000100700049
:100b0c0040128800000000002104800000402000fa
:100b1c00008060000000e000fbff3200ca42a80029
:100b2c00401280000080fa00000006000000fa006d
:100b3c002143a90050c0b30024e3b7002043a80010
:100b4c003003a8002c03a900001980000050a1005c
:100b5c000060a1000070a1000019880021e3a8002a
:100b6c000080fa00000006000000fa002023a90013
:100b7c000080fa00000006000000fa000019800056
:100b8c0000407800614060000080fb000080fa00ab
:100b9c00000006000000fa000019800061006000ef
:100bac000000e00002003200001880000100370055
:100bbc00000028000080fa00000006000000fa0087
:100bcc0060022000303a8800203a80000060a100ca
:100bdc000070a100203a8800213a800000fe2f000e
:100bec0000806000203a880032002000800720003e
:100bfc00a1092000337420008049780081497800d5
:100c0c008249780012002000600420007105200049
:100c1c00237420008049780081497800824978004b
:100c2c0000000000113a8000000027008080600066
:100c3c0000002300808f5000faff3a000080fa0079
:040c4c00000006009e
:020000040000fa
:100c5000f03fb1000180b10006003500ee0309004d
:100c600000000000403fb1000180b100fbff3d00eb
:100c70001000b000203fb0000200350000800900e5
:080c8000000000000000060066
:020000040000fa
:0c0c88000000fa00ceff0700ffff37005d
:020000040000fa
:040c9400000000005c
:020000040000fa
:0200000401f009
:04000c00f8ff0000f9
:020000040000fa
:0200000401f009
:040010007dff000070
:020000040000fa
:0200000401f009
:040014007fff00006a
:020000040000fa
:0200000401f009
:04001c00dfff000002
:00000001FF
