:020000040000fa
:080000000002040000000000f2
:020000040000fa
:04000800c80200002a
:020000040000fa
:04000c00c802000026
:020000040000fa
:04001000c802000022
:020000040000fa
:04001400c80200001e
:020000040000fa
:04001800c80200001a
:020000040000fa
:04001c00c802000016
:020000040000fa
:04002000c802000012
:020000040000fa
:04002400c80200000e
:020000040000fa
:04002800c80200000a
:020000040000fa
:04002c00c802000006
:020000040000fa
:04003000c802000002
:020000040000fa
:04003400c8020000fe
:020000040000fa
:04003800c8020000fa
:020000040000fa
:04003c00c8020000f6
:020000040000fa
:04004000c8020000f2
:020000040000fa
:04004400c8020000ee
:020000040000fa
:04004800c8020000ea
:020000040000fa
:04004c00c8020000e6
:020000040000fa
:04005000c8020000e2
:020000040000fa
:04005400c8020000de
:020000040000fa
:04005800c8020000da
:020000040000fa
:04005c00c8020000d6
:020000040000fa
:04006000c8020000d2
:020000040000fa
:04006400c8020000ce
:020000040000fa
:04006800c8020000ca
:020000040000fa
:04006c00c8020000c6
:020000040000fa
:04007000c8020000c2
:020000040000fa
:04007400c8020000be
:020000040000fa
:04007800c8020000ba
:020000040000fa
:04007c00c8020000b6
:020000040000fa
:04008000c8020000b2
:020000040000fa
:04008400c8020000ae
:020000040000fa
:04008800c8020000aa
:020000040000fa
:04008c00c8020000a6
:020000040000fa
:04009000c8020000a2
:020000040000fa
:04009400c80200009e
:020000040000fa
:04009800c80200009a
:020000040000fa
:04009c00c802000096
:020000040000fa
:0400a000c802000092
:020000040000fa
:0400a400c80200008e
:020000040000fa
:0400a800c80200008a
:020000040000fa
:0400ac00c802000086
:020000040000fa
:0400b000c802000082
:020000040000fa
:0400b400c80200007e
:020000040000fa
:0400b800c80200007a
:020000040000fa
:0400bc00c802000076
:020000040000fa
:0400c000c802000072
:020000040000fa
:0400c400c80200006e
:020000040000fa
:0400c800c80200006a
:020000040000fa
:0400cc00c802000066
:020000040000fa
:0400d000c802000062
:020000040000fa
:0400d400c80200005e
:020000040000fa
:0400d800c80200005a
:020000040000fa
:0400dc00c802000056
:020000040000fa
:0400e000c802000052
:020000040000fa
:0400e400c80200004e
:020000040000fa
:0400e800c80200004a
:020000040000fa
:0400ec00c802000046
:020000040000fa
:0400f000c802000042
:020000040000fa
:0400f400c80200003e
:020000040000fa
:0400f800c80200003a
:020000040000fa
:0400fc00c802000036
:020000040000fa
:04010000c802000031
:020000040000fa
:04010400c80200002d
:020000040000fa
:04010800c802000029
:020000040000fa
:04010c00c802000025
:020000040000fa
:04011000c802000021
:020000040000fa
:04011400c80200001d
:020000040000fa
:04011800c802000019
:020000040000fa
:04011c00c802000015
:020000040000fa
:04012000c802000011
:020000040000fa
:04012400c80200000d
:020000040000fa
:04012800c802000009
:020000040000fa
:04012c00c802000005
:020000040000fa
:04013000c802000001
:020000040000fa
:04013400c8020000fd
:020000040000fa
:04013800c8020000f9
:020000040000fa
:04013c00c8020000f5
:020000040000fa
:04014000c8020000f1
:020000040000fa
:04014400c8020000ed
:020000040000fa
:04014800c8020000e9
:020000040000fa
:04014c00c8020000e5
:020000040000fa
:04015000c8020000e1
:020000040000fa
:04015400c8020000dd
:020000040000fa
:04015800c8020000d9
:020000040000fa
:04015c00c8020000d5
:020000040000fa
:04016000c8020000d1
:020000040000fa
:04016400c8020000cd
:020000040000fa
:04020800c802000028
:020000040000fa
:04020c00c802000024
:020000040000fa
:04021000c802000020
:020000040000fa
:04021400c80200001c
:020000040000fa
:04021800c802000018
:020000040000fa
:04021c00c802000014
:020000040000fa
:04022000c802000010
:020000040000fa
:04022400c80200000c
:020000040000fa
:04022800c802000008
:020000040000fa
:04022c00c802000004
:020000040000fa
:04023000c802000000
:020000040000fa
:04023400c8020000fc
:020000040000fa
:04023800c8020000f8
:020000040000fa
:04023c00c8020000f4
:020000040000fa
:04024000c8020000f0
:020000040000fa
:04024400c8020000ec
:020000040000fa
:04024800c8020000e8
:020000040000fa
:04024c00c8020000e4
:020000040000fa
:04025000c8020000e0
:020000040000fa
:04025400c8020000dc
:020000040000fa
:04025800c8020000d8
:020000040000fa
:04025c00c8020000d4
:020000040000fa
:04026000c8020000d0
:020000040000fa
:04026400c8020000cc
:020000040000fa
:04026800c8020000c8
:020000040000fa
:04026c00c8020000c4
:020000040000fa
:04027000c8020000c0
:020000040000fa
:04027400c8020000bc
:020000040000fa
:04027800c8020000b8
:020000040000fa
:04027c00c8020000b4
:020000040000fa
:04028000c8020000b0
:020000040000fa
:04028400c8020000ac
:020000040000fa
:04028800c8020000a8
:020000040000fa
:04028c00c8020000a4
:020000040000fa
:04029000c8020000a0
:020000040000fa
:04029400c80200009c
:020000040000fa
:04029800c802000098
:020000040000fa
:04029c00c802000094
:020000040000fa
:0402a000c802000090
:020000040000fa
:0402a400c80200008c
:020000040000fa
:0402a800c802000088
:020000040000fa
:0402ac00c802000084
:020000040000fa
:0402b000c802000080
:020000040000fa
:0402b400c80200007c
:020000040000fa
:0402b800c802000078
:020000040000fa
:0402bc00c802000074
:020000040000fa
:0402c000c802000070
:020000040000fa
:0402c400c80200006c
:020000040000fa
:0402c800c802000068
:020000040000fa
:0402cc00c802000064
:020000040000fa
:0402d000c802000060
:020000040000fa
:0402d400c80200005c
:020000040000fa
:0402d800c802000058
:020000040000fa
:0402dc00c802000054
:020000040000fa
:0402e000c802000050
:020000040000fa
:0402e400c80200004c
:020000040000fa
:0402e800c802000048
:020000040000fa
:0402ec00c802000044
:020000040000fa
:0402f000c802000040
:020000040000fa
:0402f400c80200003c
:020000040000fa
:0402f800c802000038
:020000040000fa
:0402fc00c802000034
:020000040000fa
:04030000c80200002f
:020000040000fa
:04030400c80200002b
:020000040000fa
:04030800c802000027
:020000040000fa
:04030c00c802000023
:020000040000fa
:04031000c80200001f
:020000040000fa
:04031400c80200001b
:020000040000fa
:04031800c802000017
:020000040000fa
:04031c00c802000013
:020000040000fa
:04032000c80200000f
:020000040000fa
:04032400c80200000b
:020000040000fa
:04032800c802000007
:020000040000fa
:04032c00c802000003
:020000040000fa
:04033000c8020000ff
:020000040000fa
:04033400c8020000fb
:020000040000fa
:04033800c8020000f7
:020000040000fa
:04033c00c8020000f3
:020000040000fa
:04034000c8020000ef
:020000040000fa
:04034400c8020000eb
:020000040000fa
:04034800c8020000e7
:020000040000fa
:04034c00c8020000e3
:020000040000fa
:04035000c8020000df
:020000040000fa
:04035400c8020000db
:020000040000fa
:04035800c8020000d7
:020000040000fa
:04035c00c8020000d3
:020000040000fa
:04036000c8020000cf
:020000040000fa
:04036400c8020000cb
:020000040000fa
:10040000af8720000e7f24000e018800000000004e
:10041000000020000000e000020032000001200087
:1004200020028800140007005b0007000000e000c5
:1004300003003a006076200001002000020037002f
:100440000000200001002000810f70000100320038
:1004500014000700000020000000e000020032004d
:100460000000020000000000ea040200000000009a
:100470000040da000000fe004440a9000000200017
:100480000000e0000300320000002000a00188000e
:100490004440a800000006008a1f78008b1f7800e7
:1004a0000000060091018800800478000000eb0045
:1004b0001a003700e284440032a0b4009905ba0063
:1004c000e284440032a0b4009906ba00e2844400f9
:1004d00032a0b4000006eb00476fde00fd07b2005b
:1004e000636ce10003003a00ebff07000000eb0043
:1004f0000a003700606ce10004003a00005deb0088
:100500008b05e900fdff3e00040037006168e10053
:10051000010032000086eb000b00070019c7ba008b
:100520001905ba000e04e00003003a000a00e000da
:10053000e0ff3a0000000600fe07b2009e018800be
:100540008a047800f5ff3700395dba008b05e900b1
:100550000c003200295dba008b05e900080032006a
:100560000c00e00003003a00e284440032a0b40032
:10057000f5ff370019ddba008b05e900faff3a00f4
:100580008904e800e184440032a0b40000000600c1
:0c0590000040da000000fe000000050042
:020000040000fa
:10059c000000fa0040c0200070088800910880001c
:1005ac00f0fc2f00008060009008880013e1a80088
:1005bc000080fa00000006000000fa005001200044
:1005cc00401188000111800090ff2f000080600016
:1005dc00001188002002a9002082a9002062a90035
:1005ec0021e2a8002342a8000080fa0000000600c7
:1005fc001400fa00889fbe008a9fbe008c9fbe002c
:10060c006007980071079800020f9800130f98006c
:10061c000000eb00000f7800df0037009e00780030
:10062c00400220000088b900000078009e0890006d
:10063c0000804000b0089000200890006e019000ef
:10064c000191b90002017800fe019000009ab900f6
:10065c008401780003014100ee0190000018b800fd
:10066c0001014100820078004809dd00c801de006c
:10067c00830171004801dd002207980033079800c0
:10068c000000eb0010079800270037009e00780050
:10069c00400220000088b900000078009e089000fd
:1006ac00808040001e0090000000e80065004000c3
:1006bc004200dd00008040001001be009e0078006a
:1006cc00400220000088b900000078009e089000cd
:1006dc00808040001e0090004200dd000080400041
:1006ec001000be00009ab90004027800028eb90016
:1006fc008c027800050242000010b8000102420092
:10070c00840078002e019000be0190000000510082
:10071c008180590020079800310798001e00900036
:10072c000000e800100798001e009000e10f500038
:10073c00d6ff34002e009000be0090004809dd006a
:10074c004803de0006037100c88bde002607980004
:10075c00370798009e007800400220000088b900fe
:10076c00000078009e08900000804000d0009000af
:10077c00400090002e0190000191b9000201780018
:10078c00be019000009ab900840178000301410079
:10079c00ae0190000018b800010141008200780001
:1007ac00400798005107980040079800510798009f
:1007bc000000eb0010079800270037009e0078001f
:1007cc00400220000088b900000078009e089000cc
:1007dc00808040001e0090000000e8000080e800cf
:1007ec004200dd00008040001001be009e00780039
:1007fc00400220000088b900000078009e0890009c
:10080c00808040001e0090004200dd00008040000f
:10081c001000be00009ab90004027800028eb900e4
:10082c008c027800050242000010b8000102420060
:10083c00840078004e019000de0190000200400020
:10084c008380480040079800510798001e009000d4
:10085c000000e800100798001e009000e10f500007
:10086c00d6ff34004e009000de009000408cde007d
:10087c00cf8cde0048079800590798009e0078003e
:10088c00400220000088b900000078009e0890000b
:10089c000080400090109000001090004e019000dd
:1008ac000191b90002017800de019000009ab900b4
:1008bc008401780003014100ce0190000018b800bb
:1008cc0001014100820078006007980071079800d0
:1008dc0060079800710798006e009000fe00900071
:1008ec00c809dd004805de000a857100c88dde00f0
:1008fc006a0798007b0798001000200010079800ea
:10090c00180037009e007800400220000088b900d3
:10091c00000078009e089000808140009e007800c6
:10092c00400220000088b900000078009e0890006a
:10093c00808040001e0090000000e9004200dd00b5
:10094c00008040001000be001e0190004211dd002e
:10095c00028141000089be001e0090000000e900e9
:10096c00100798001e0090000000e000e5ff3c001e
:10097c009e007800400220000088b900000078003a
:10098c009e089000008040002e019000be01900057
:10099c000288be001e0fe8001e007800e30f500016
:1009ac001eff34000e0890006e019000fe019000b6
:1009bc000288be004f06be004f05be004f04be00ad
:1009cc000080fa00000006002e01fa001a01070050
:1009dc000080eb0060198800edfe0700f1000700b5
:1009ec00c022a900ee0047008f0009008018eb0020
:1009fc000010200001002000300f9800410f9800db
:100a0c0000f02f00f1ff2f00700f980001179800d5
:100a1c0000102000010020001017980021179800ea
:100a2c0030e32f00f1ff2f0030179800411798008a
:100a3c00e00f20000100200050179800611798006b
:100a4c00200020000100200070179800011f980062
:100a5c000010200001002000501f9800611f98001a
:100a6c0000f02f00f1ff2f0010279800212798008d
:100a7c00001020000100200030279800412798002a
:100a8c0000e32f00f1ff2f005027980061279800fa
:100a9c00e00f20000100200070279800012f980023
:100aac002000200001002000102f9800212f98001a
:100abc000010200001002000702f980001379800d2
:100acc0000f02f00f1ff2f003037980041379800cd
:100adc00001020000100200050379800613798006a
:100aec0040e32f00f1ff2f0070379800013f980072
:100afc00c00f200001002000103f9800213f9800fb
:100b0c002000200001002000303f9800413f980059
:100b1c000010200001002000108798002187980009
:100b2c0000f02f00f1ff2f0050879800618798008c
:100b3c00001020000100200070879800018f9800a1
:100b4c0030e32f00f1ff2f00108f9800218f9800b9
:100b5c00c00f200001002000308f9800418f9800ba
:100b6c002000200001002000508f9800618f980019
:100b7c000010200001002000309798004197980049
:100b8c0000f02f00f1ff2f0070979800019f980044
:100b9c000010200001002000109f9800219f980059
:100bac00b0e42f00f1ff2f00309f9800419f980078
:100bbc00d00f200001002000509f9800619f9800ea
:100bcc002000200001002000709f980001a79800d1
:100bdc00001020000100200050a7980061a7980089
:100bec0000f02f00f1ff2f0010af980021af9800fc
:100bfc00001020000100200030af980041af980099
:100c0c0060e42f00f1ff2f0050af980061af980007
:100c1c00e00f20000100200070af980001b7980091
:100c2c00200020000100200010b7980021b7980088
:100c3c00001020000100200070b7980001bf980040
:100c4c0000f02f00f1ff2f0030bf980041bf98003b
:100c5c00001020000100200050bf980061bf9800d8
:100c6c00c0e42f00f1ff2f0070bf9800010799001e
:100c7c00b00f2000010020001007990021079900f7
:100c8c002000200001002000300799004107990046
:100c9c000010200001002000100f9900210f990076
:100cac0000f02f00f1ff2f00500f9900610f9900f9
:100cbc000010200001002000700f9900011799000e
:100ccc00a0e42f00f1ff2f001017990021179900b5
:100cdc00b00f200001002000301799004117990037
:100cec002000200001002000501799006117990086
:100cfc0001003700000000003d0007000000e0008c
:100d0c00fcff3200c422a80040000700cf80de00a8
:100d1c0010079800210798000000eb00000f7800e6
:100d2c00100037006e0147009e007800000920007b
:100d3c000088b90000007800800041001e00780097
:100d4c004200dd006601470000004100810178008f
:100d5c00000178001e009000ae00900024fe0700f9
:100d6c001e0fe8001e007800e10f5000edff34006c
:100d7c00008020001001be003e009000ce009000cc
:100d8c00800f5100818f590004003d003e009000ff
:100d9c00ce009000028020000089be00c422a90071
:100dac00d5ff37000000fa002143a90050c0b30062
:100dbc0024e3b7002043a8003003a8002c03a900ab
:100dcc0001198000f0f12f00008060000060a0008d
:100ddc000019880021e3a8000080fa00000006003a
:100dec000000fa002023a9000080fa000000060091
:100dfc000000fa000019800000407800614060009b
:100e0c000080fb000080fa00000006000000fa00e1
:100e1c0000198000610060000000e0000300320057
:100e2c002003a900001880000100370000002800f2
:100e3c000080fa00000006000000fa00e00120002b
:100e4c00303a8800213a8000f0f32f0000806000d7
:100e5c00203a8800213a800000fe2f0000806000bc
:100e6c00203a88003200200080072000a1092000d1
:100e7c0033742000804978008149780082497800d9
:100e8c001200200060042000710520002374200053
:100e9c008049780081497800824978000000000080
:100eac00113a8000000027008080600000002300c1
:100ebc00808f5000faff3a000080fa000000060014
:020000040000fa
:100ecc000a0800007000000000000000000800008c
:0c0edc000a000000000000000000000000
:020000040000fa
:0200000401f009
:04000c008000000070
:020000040000fa
:0200000401f009
:040010006500000087
:020000040000fa
:0200000401f009
:040014005f00000089
:020000040000fa
:0200000401f009
:04001c00dfff000002
:00000001FF
