:020000040000fa
:080000000002040000000000f2
:020000040000fa
:04000800c80200002a
:020000040000fa
:04000c00c802000026
:020000040000fa
:04001000c802000022
:020000040000fa
:04001400c80200001e
:020000040000fa
:04001800c80200001a
:020000040000fa
:04001c00c802000016
:020000040000fa
:04002000c802000012
:020000040000fa
:04002400c80200000e
:020000040000fa
:04002800c80200000a
:020000040000fa
:04002c00c802000006
:020000040000fa
:04003000c802000002
:020000040000fa
:04003400c8020000fe
:020000040000fa
:04003800c8020000fa
:020000040000fa
:04003c00c8020000f6
:020000040000fa
:04004000c8020000f2
:020000040000fa
:04004400c8020000ee
:020000040000fa
:04004800c8020000ea
:020000040000fa
:04004c00c8020000e6
:020000040000fa
:04005000c8020000e2
:020000040000fa
:04005400c8020000de
:020000040000fa
:04005800c8020000da
:020000040000fa
:04005c00c8020000d6
:020000040000fa
:04006000c8020000d2
:020000040000fa
:04006400c8020000ce
:020000040000fa
:04006800c8020000ca
:020000040000fa
:04006c00c8020000c6
:020000040000fa
:04007000c8020000c2
:020000040000fa
:04007400c8020000be
:020000040000fa
:04007800c8020000ba
:020000040000fa
:04007c00c8020000b6
:020000040000fa
:04008000c8020000b2
:020000040000fa
:04008400c8020000ae
:020000040000fa
:04008800c8020000aa
:020000040000fa
:04008c00c8020000a6
:020000040000fa
:04009000c8020000a2
:020000040000fa
:04009400c80200009e
:020000040000fa
:04009800c80200009a
:020000040000fa
:04009c00c802000096
:020000040000fa
:0400a000c802000092
:020000040000fa
:0400a400c80200008e
:020000040000fa
:0400a800c80200008a
:020000040000fa
:0400ac00c802000086
:020000040000fa
:0400b000c802000082
:020000040000fa
:0400b400c80200007e
:020000040000fa
:0400b800c80200007a
:020000040000fa
:0400bc00c802000076
:020000040000fa
:0400c000c802000072
:020000040000fa
:0400c400c80200006e
:020000040000fa
:0400c800c80200006a
:020000040000fa
:0400cc00c802000066
:020000040000fa
:0400d000c802000062
:020000040000fa
:0400d400c80200005e
:020000040000fa
:0400d800c80200005a
:020000040000fa
:0400dc00c802000056
:020000040000fa
:0400e000c802000052
:020000040000fa
:0400e400c80200004e
:020000040000fa
:0400e800c80200004a
:020000040000fa
:0400ec00c802000046
:020000040000fa
:0400f000c802000042
:020000040000fa
:0400f400c80200003e
:020000040000fa
:0400f800c80200003a
:020000040000fa
:0400fc00c802000036
:020000040000fa
:04010000c802000031
:020000040000fa
:04010400c80200002d
:020000040000fa
:04010800c802000029
:020000040000fa
:04010c00c802000025
:020000040000fa
:04011000c802000021
:020000040000fa
:04011400c80200001d
:020000040000fa
:04011800c802000019
:020000040000fa
:04011c00c802000015
:020000040000fa
:04012000c802000011
:020000040000fa
:04012400c80200000d
:020000040000fa
:04012800c802000009
:020000040000fa
:04012c00c802000005
:020000040000fa
:04013000c802000001
:020000040000fa
:04013400c8020000fd
:020000040000fa
:04013800c8020000f9
:020000040000fa
:04013c00c8020000f5
:020000040000fa
:04014000c8020000f1
:020000040000fa
:04014400c8020000ed
:020000040000fa
:04014800c8020000e9
:020000040000fa
:04014c00c8020000e5
:020000040000fa
:04015000c8020000e1
:020000040000fa
:04015400c8020000dd
:020000040000fa
:04015800c8020000d9
:020000040000fa
:04015c00c8020000d5
:020000040000fa
:04016000c8020000d1
:020000040000fa
:04016400c8020000cd
:020000040000fa
:04020800c802000028
:020000040000fa
:04020c00c802000024
:020000040000fa
:04021000c802000020
:020000040000fa
:04021400c80200001c
:020000040000fa
:04021800c802000018
:020000040000fa
:04021c00c802000014
:020000040000fa
:04022000c802000010
:020000040000fa
:04022400c80200000c
:020000040000fa
:04022800c802000008
:020000040000fa
:04022c00c802000004
:020000040000fa
:04023000c802000000
:020000040000fa
:04023400c8020000fc
:020000040000fa
:04023800c8020000f8
:020000040000fa
:04023c00c8020000f4
:020000040000fa
:04024000c8020000f0
:020000040000fa
:04024400c8020000ec
:020000040000fa
:04024800c8020000e8
:020000040000fa
:04024c00c8020000e4
:020000040000fa
:04025000c8020000e0
:020000040000fa
:04025400c8020000dc
:020000040000fa
:04025800c8020000d8
:020000040000fa
:04025c00c8020000d4
:020000040000fa
:04026000c8020000d0
:020000040000fa
:04026400c8020000cc
:020000040000fa
:04026800c8020000c8
:020000040000fa
:04026c00c8020000c4
:020000040000fa
:04027000c8020000c0
:020000040000fa
:04027400c8020000bc
:020000040000fa
:04027800c8020000b8
:020000040000fa
:04027c00c8020000b4
:020000040000fa
:04028000c8020000b0
:020000040000fa
:04028400c8020000ac
:020000040000fa
:04028800c8020000a8
:020000040000fa
:04028c00c8020000a4
:020000040000fa
:04029000c8020000a0
:020000040000fa
:04029400c80200009c
:020000040000fa
:04029800c802000098
:020000040000fa
:04029c00c802000094
:020000040000fa
:0402a000c802000090
:020000040000fa
:0402a400c80200008c
:020000040000fa
:0402a800c802000088
:020000040000fa
:0402ac00c802000084
:020000040000fa
:0402b000c802000080
:020000040000fa
:0402b400c80200007c
:020000040000fa
:0402b800c802000078
:020000040000fa
:0402bc00c802000074
:020000040000fa
:0402c000c802000070
:020000040000fa
:0402c400c80200006c
:020000040000fa
:0402c800c802000068
:020000040000fa
:0402cc00c802000064
:020000040000fa
:0402d000c802000060
:020000040000fa
:0402d400c80200005c
:020000040000fa
:0402d800c802000058
:020000040000fa
:0402dc00c802000054
:020000040000fa
:0402e000c802000050
:020000040000fa
:0402e400c80200004c
:020000040000fa
:0402e800c802000048
:020000040000fa
:0402ec00c802000044
:020000040000fa
:0402f000c802000040
:020000040000fa
:0402f400c80200003c
:020000040000fa
:0402f800c802000038
:020000040000fa
:0402fc00c802000034
:020000040000fa
:04030000c80200002f
:020000040000fa
:04030400c80200002b
:020000040000fa
:04030800c802000027
:020000040000fa
:04030c00c802000023
:020000040000fa
:04031000c80200001f
:020000040000fa
:04031400c80200001b
:020000040000fa
:04031800c802000017
:020000040000fa
:04031c00c802000013
:020000040000fa
:04032000c80200000f
:020000040000fa
:04032400c80200000b
:020000040000fa
:04032800c802000007
:020000040000fa
:04032c00c802000003
:020000040000fa
:04033000c8020000ff
:020000040000fa
:04033400c8020000fb
:020000040000fa
:04033800c8020000f7
:020000040000fa
:04033c00c8020000f3
:020000040000fa
:04034000c8020000ef
:020000040000fa
:04034400c8020000eb
:020000040000fa
:04034800c8020000e7
:020000040000fa
:04034c00c8020000e3
:020000040000fa
:04035000c8020000df
:020000040000fa
:04035400c8020000db
:020000040000fa
:04035800c8020000d7
:020000040000fa
:04035c00c8020000d3
:020000040000fa
:04036000c8020000cf
:020000040000fa
:04036400c8020000cb
:020000040000fa
:100400000f8020000e7f24000e01880000000000f5
:10041000000020000000e000020032000001200087
:1004200020028800140007005b0007000000e000c5
:1004300003003a0000002000010020000200370005
:100440000000200001002000810f70000100320038
:1004500014000700000020000000e000020032004d
:100460000000020000000000260a02000000000058
:100470000040da000000fe004440a9000000200017
:100480000000e0000300320000002000a00188000e
:100490004440a800000006008a1f78008b1f7800e7
:1004a0000000060091018800800478000000eb0045
:1004b0001a003700e284440032a0b4009905ba0063
:1004c000e284440032a0b4009906ba00e2844400f9
:1004d00032a0b4000006eb00476fde00fd07b2005b
:1004e000636ce10003003a00ebff07000000eb0043
:1004f0000a003700606ce10004003a00005deb0088
:100500008b05e900fdff3e00040037006168e10053
:10051000010032000086eb000b00070019c7ba008b
:100520001905ba000e04e00003003a000a00e000da
:10053000e0ff3a0000000600fe07b2009e018800be
:100540008a047800f5ff3700395dba008b05e900b1
:100550000c003200295dba008b05e900080032006a
:100560000c00e00003003a00e284440032a0b40032
:10057000f5ff370019ddba008b05e900faff3a00f4
:100580008904e800e184440032a0b40000000600c1
:100590000040da000000fe000000050003f0a200a9
:1005a000889fbe008a9fbe008c1f78001b01070039
:1005b000220133006450e1004f0032006420e1006a
:1005c0005200320003826c0007003b000905d00096
:1005d0000306d000820f54000c065d0002003900b3
:1005e00002003200890178000306780085825500f8
:1005f00004003d000003fd008103fd008502ea00c8
:100600008b854200840f720002003b0060001000e6
:10061000e08018006011b8000005eb007a28e100c6
:100620000a00390006007800c75ddd00f707b20058
:10063000878075002d003700828171000a017800e3
:10064000610560008180d1000080d3008502e9004f
:10065000f9ff3b00060440008784480002003b008d
:1006600060041400e0841c000988a3000700320025
:100670008a81710082817100610164008904d10066
:100680000884d3008b05e800170037000978a30021
:1006900013003a000b00e000130034008b05e90062
:1006a0000804440089844c000a4474000978a300bb
:1006b0000d003a000b00e000070034008b05e90054
:1006c0000804440089844c0001003a000b0020001b
:1006d0000978a300f7ff32000001eb0002003700a9
:1006e000828171000a017800910007000cf0a700d8
:1006f00001f0a000da0037006420e10002003a00b7
:10070000838f6c00da0033000801be000200be00d7
:10071000d3003700889fbe008a9fbe008c1f7800e0
:10072000be000700c500330003866c006450e10082
:100730002e0032006420e100330032006150e100fd
:100740002f0032006120e100310032008585550024
:10075000eb07b00009002000080420000500370066
:100760000804440089844c000a0031000603430059
:1007700087834b000001530081815b00f8ff330049
:100780000203be000800a0000804440089844c0055
:10079000f6ff3900c639dd00830173000100320025
:1007a000130020008904d1000884d3000998a30015
:1007b000050032000800a7000300a0008904d10052
:1007c0000884d3008b05e8008904d1000884d30095
:1007d0000001eb000281d2005500070001f0a100ea
:1007e0000cf0a70001f0a0009d0037006420e1009c
:1007f0009f0032000801be000200be00f7ff370074
:100800006120e1009a0032006000b800f3ff370079
:100810000000200001f82700f0ff3700140020003e
:10082000ca003700f4ff2f00c80037000001be00e7
:10083000650007000470a70003f0a1006509b1007e
:10084000160032000d0035006828e1000600350072
:10085000f0ff2f00f1ff27000300e00013003b0032
:1008600001002800000005000000400081804800d1
:100870008502e900fcff3a0008003700f88f4200cb
:1008800002003c008000eb00000005008100d10068
:100890000080d3008502e800fcff3a000300e0007e
:1008a00002003b0060001000e0801800000006001d
:1008b0000001be00440007000470a70003f0a1007f
:1008c00003f8a30013003a006509b10010003200dc
:1008d000090035006928e100020035000100280008
:1008e0000000050000004000818048008502e9000a
:1008f000fcff3a0000000600f88f420005003500ba
:100900008100d1000080d3008502e800fcff3a009e
:10091000000006008000eb00000005004f89de00ab
:1009200082017800a40037006011b800b2003700df
:1009300081002000618055000b003d000b0020006d
:1009400061fe2f000100e1001d0034008281710072
:10095000610164008904d1000884d3000000e8002c
:10096000faff3a007100200061006400030070008b
:10097000020060000900320061044400e0844c0081
:100980000988a500050032008b05e8006808e10031
:1009900002003a008904d1000884d300f20f20003d
:1009a0000258e10005003d00c75ddd00f907b20017
:1009b0008980750008007800000006000bf8270009
:1009c0008b00780000000500c70ade00f107b200c6
:1009d000f50fb20008003200e1cf42000200320001
:1009e0000170a00024000500810f7000010032009a
:1009f0000408050044000500810f700002003a0061
:100a0000140005008502e9000000400081c0480094
:100a1000fcff3b000170a000240005000004be00a4
:100a2000e9ff07000003be000405be000200be008f
:100a3000e5ff0700844f7500000006000200be00bd
:100a40006450e100050036006420e1000200360039
:100a50000968a30001003a000800be000160a00080
:100a60004f0678004f05be004f04be000000060090
:100a7000f0ff2f00f1ff2700f9ff3700889fbe002d
:100a80008a9fbe008c1f7800e4ff0700ebff330055
:100a900003866c006450e100240032006420e10011
:100aa000270032006150e100220032006120e100a5
:100ab000210032008b854200eb07b1000134b80001
:100ac000003ab8000804420089844a00013ab8009c
:100ad0000030b8008880400009014a00040033005b
:100ae0000000400081804800020149008b05e900b8
:100af000c909dd00830170000100320013002000ed
:100b0000c814de004814dd004709de001200b20000
:100b1000c808de000884700085ff070001f0a1000e
:100b20000cf0a70001f0a000cdff37006120e1002c
:100b3000cfff32000801be000200be00f7ff370001
:100b40006150e100fcff3a00c9ff3700889fbe00fa
:100b50008a9fbe00841f7800b0ff07004f00780016
:100b600011003300f0ff2f00838f6c0006003b0064
:100b7000040565000a00a7000800370009f0a60078
:100b80001000200008003700820f5400838f5c00a3
:100b9000030039001000200001003e00000020008a
:100ba00009f0a7000000ea004f05be004f04be0098
:100bb0000000e00000000600881f780003047800b1
:100bc0000300e00007003d0060001000e080180016
:100bd00060011900e081190002003b0001f02d00c6
:100be000030037000400070008f0a70001f0a00090
:100bf0004f04780000000600889fbe008a9fbe0058
:100c0000008270000402710004827100260032002c
:100c10000004be000200be006011b8006b09200095
:100c2000950220000182cf000a0039000541b10081
:100c30000082cf00070039000541b1000982cf00d2
:100c4000040039000541b1000882cf0001003900dd
:100c50000541b10005425200120032000a003b007b
:100c600082817100610164008100d1000080d300a5
:100c70008984d3000884d3008b05e8000442e8008f
:100c8000f7ff3a00070037000804440089844c004d
:100c900000004800818048008b05e9000442e9001b
:100ca000f9ff3a0022ff07004f05be004f04be00c7
:040cb000000006003a
:020000040000fa
:100cb4000000fa00e134800000fe2f000080600094
:100cc4003001b300e0348800e1348000f00f2e00de
:100cd400808060000040210001007000e034880042
:100ce4000135800000fe2f00008060008001b30009
:100cf4000035880001358000f00f2e0080806000f0
:100d0400009021000100700000358800010f800070
:100d14000070200001007000000f8800810f800027
:100d24000070200001007000800f8800e0e1a8003e
:100d34000080fa00000006000000fa0091368000ee
:100d440000fe2f00008060002001b3009036880070
:100d540061368000f00f2e0080806000003021009a
:100d640001007000603688008461a900600880007a
:100d74008021ef00210c800080ff2f0000806000a4
:100d84006000b300200c88008a61a900600880001c
:100d94008621ef00510c800080ff2f00008060004e
:100da4006000b300500c88000080fa0000000600c8
:100db4001a00fa00889fbe008a9fbe00100f980098
:100dc400210f9800320f9800430f98000200200072
:100dd400433b24001e089000ae08900026ff070045
:100de40032c5260033ea230049fe07008efe0700c1
:100df400400798006000b800008fbe007100370003
:100e04000200200003f023001e00be001aff0700aa
:100e14000200200003fc2300e0fd07000200200084
:100e2400031224003afe0700500798006107980057
:100e34000200200003f023001e00be000eff070086
:100e44000001be000000200001fc2300d2fd0700c9
:100e540002002000031224002dfe070070079800f2
:100e6400010f9800200f8000cf80de00aafe07004b
:100e74000200200003f02300fffe0700b2fd200063
:100e840093042400fcfe0700923a210003dd2300b2
:100e9400f9fe07000004be00020020000331240014
:100ea4001e00be00f4fe07000001be000800be00e4
:100eb40017fe0700008fbe007e0490008e0c900089
:100ec400200f800080007800a00f80000080500078
:100ed400cf80de0090fe0700f226210033a023001d
:100ee400e5fe07000001be000800be00aafd0700e1
:100ef400200798003107980018c0b300a299290070
:100f040093e123002e009000be00900044fe0700f1
:100f14000000e00001003c000044eb000804e00095
:100f24000500320010ae270041e12300200798009d
:100f3400310798000f00370018c0b300d2cc2c0042
:100f4400c3dc23002e009000be00900032fe070098
:100f54000000e000010035000044eb000804e0005c
:100f640004003200d0cc2c00c1dc23002007980000
:100f740031079800600880008000eb0069fe0700dc
:100f84002e019000be019000bbfe070047fe070043
:100f940000007800300c88005e049000ee0490009d
:100fa400600880008000eb005efe07000001be00c8
:100fb4000800be00b0fe07003cfe070000007800f9
:100fc400000c880018c0b3003e099000ce099000c0
:100fd4001e00be0010fe07000000e0000100350006
:100fe4000044eb000804e00008003200200f8000f9
:100ff400800078004e0090004f01de0000004100a8
:101004000080d100808f50007dff35000200200059
:1010140003f023003e089000ce08900096fe0700df
:101024000200200003fc23005cfd070002002000f6
:1010340003122400b6fd07005007980061079800ca
:101044005e049000ee049000600880008000eb00d5
:1010540034fe07000001be000800be0086fe070043
:1010640012fe070000007800000c88000200200037
:1010740003f023003e089000ce0890007efe070097
:101084000001be000000200001fc230042fd070017
:1010940002002000031224009dfd07007007980041
:1010a400010f9800380037007e0490008e0c9000e9
:1010b400200f800080007800a00f80000080500086
:1010c400cf80de0014fe0700f226210033a02300a7
:1010d40069fe07000001be000800be002efd0700e7
:1010e400200798003107980018c0b300a29929007e
:1010f40093e123002e009000be009000c8fd07007d
:101104000000e00001003c000044eb000804e000a3
:101114000500320010ae270041e1230020079800ab
:10112400310798000f00370018c0b300d2cc2c0050
:10113400c3dc23002e009000be009000b6fd070023
:101144000000e000010035000044eb000804e0006a
:1011540004003200d0cc2c00c1dc2300200798000e
:1011640031079800600880008000eb00edfd070067
:101174002e019000be0190003ffe0700cbfd07004a
:1011840000007800300c8800200f8000cf80de0043
:10119400e1fd07000004be004e009000cf80de0099
:1011a400ddfd07000005be00b2702d0033e2230010
:1011b4003e089000ce0890002ffe07003e099000e4
:1011c400ce0990002cfe07000200200003f023004b
:1011d4004ffd07000001be000a00be00eefc070040
:1011e4001ac0b3000001be000800be008afd07005b
:1011f4000000e000010034000045eb000a04e000b8
:10120400a9ff3a0018c0b3003e099000ce0990002f
:101214001e00be0082fd07000000e00001003c004b
:101224000044eb000804e000780032003e0990001e
:10123400ce099000028fbe00750037000200200026
:1012440003f023001e00be000bfe07000200200076
:1012540003fc2300d1fc0700020020000312240039
:101264002bfd07005007980061079800020020003a
:1012740003f023001e00be00fffd07000001be00b6
:101284000000200001fc2300c3fc07000200200032
:10129400031224001efd070070079800010f980038
:1012a400200f8000ce00900000805000cf80de0030
:1012b40099fd07000200200003f02300eefd070063
:1012c400b2fd200093042400ebfd0700923a2100b4
:1012d40003dd2300e8fd07000004be000200200037
:1012e400033124001e00be00e3fd07000001be0020
:1012f4000800be0006fd0700008fbe007e049000bb
:101304008e0c9000200f800080007800a00f8000d9
:1013140000805000cf80de007ffd0700f226210010
:1013240033a02300d4fd07000001be000800be0066
:1013340099fc0700200798003107980018c0b300f3
:10134400a299290093e123002e009000be00900092
:1013540033fd07000000e00001003c000044eb0006
:101364000804e0000500320010ae270041e123002c
:1013740020079800310798000f00370018c0b30009
:10138400d2cc2c00c3dc23002e009000be009000c1
:1013940021fd07000000e000010035000044eb00df
:1013a4000804e00004003200d0cc2c00c1dc23008f
:1013b4002007980031079800600880008000eb0047
:1013c40058fd07002e019000be019000aafd070001
:1013d40036fd070000007800300c88005e049000a1
:1013e400ee049000600880008000eb004dfd0700d3
:1013f4000001be000800be009ffd07002bfd070092
:1014040000007800000c8800010037000000000094
:10141400200f8000800078004e009000808f5000e4
:1014240086ff34008021ef008621ef0000000000d9
:1014340000000000000000004f05be004f04be0085
:101444000080fa00000006000800fa003d000700d2
:1014540017fe070000352c00600888008108800012
:10146400f0fc2f00008060000040a000800888008d
:1014740011e1a80030fe0700200f8000000f780063
:10148400a00f800010079800801620002007980005
:101494000000eb00300798000200200003f823004e
:1014a4000000200001f8230041fe0700ffff370081
:1014b4000000fa002143a90050c0b30024e3b700a0
:1014c4002043a8003003a8002c03a90001198000c0
:1014d400f0f12f00008060000060a0000019880077
:1014e40021e3a8000080fa00000006000000fa00d2
:1014f4002023a9000080fa00000006000000fa0082
:101504000019800000407800614060000080fb000a
:101514000080fa00000006000000fa0000198000b4
:10152400610060000000e000030032002003a90015
:101534000018800001003700000028000080fa0035
:10154400000006000000fa00e0012000303a8800a4
:10155400213a8000f0f32f0000806000203a8800d8
:10156400213a800000fe2f0000806000203a8800ad
:101574003200200080072000a109200033742000dd
:10158400804978008149780082497800120020005f
:101594006004200071052000237420008049780035
:1015a400814978008249780000000000113a8000e7
:1015b400000027008080600000002300808f50001e
:0c15c400faff3a000080fa000000060068
:020000040000fa
:0200000401f009
:04000c008000000070
:020000040000fa
:0200000401f009
:040010006500000087
:020000040000fa
:0200000401f009
:040014005f00000089
:020000040000fa
:0200000401f009
:04001c00dfff000002
:00000001FF
