:020000040000fa
:080000000002040000000000f2
:020000040000fa
:04000800c80200002a
:020000040000fa
:04000c00c802000026
:020000040000fa
:04001000c802000022
:020000040000fa
:04001400c80200001e
:020000040000fa
:04001800c80200001a
:020000040000fa
:04001c00c802000016
:020000040000fa
:04002000c802000012
:020000040000fa
:04002400c80200000e
:020000040000fa
:04002800c80200000a
:020000040000fa
:04002c00c802000006
:020000040000fa
:04003000c802000002
:020000040000fa
:04003400c8020000fe
:020000040000fa
:04003800c8020000fa
:020000040000fa
:04003c00c8020000f6
:020000040000fa
:04004000c8020000f2
:020000040000fa
:04004400c8020000ee
:020000040000fa
:04004800c8020000ea
:020000040000fa
:04004c00c8020000e6
:020000040000fa
:04005000c8020000e2
:020000040000fa
:04005400c8020000de
:020000040000fa
:04005800c8020000da
:020000040000fa
:04005c00c8020000d6
:020000040000fa
:04006000c8020000d2
:020000040000fa
:04006400c8020000ce
:020000040000fa
:04006800c8020000ca
:020000040000fa
:04006c00c8020000c6
:020000040000fa
:04007000c8020000c2
:020000040000fa
:04007400c8020000be
:020000040000fa
:04007800c8020000ba
:020000040000fa
:04007c00c8020000b6
:020000040000fa
:04008000c8020000b2
:020000040000fa
:04008400c8020000ae
:020000040000fa
:04008800c8020000aa
:020000040000fa
:04008c00c8020000a6
:020000040000fa
:04009000c8020000a2
:020000040000fa
:04009400c80200009e
:020000040000fa
:04009800c80200009a
:020000040000fa
:04009c00c802000096
:020000040000fa
:0400a000c802000092
:020000040000fa
:0400a400c80200008e
:020000040000fa
:0400a800c80200008a
:020000040000fa
:0400ac00c802000086
:020000040000fa
:0400b000c802000082
:020000040000fa
:0400b400c80200007e
:020000040000fa
:0400b800c80200007a
:020000040000fa
:0400bc00c802000076
:020000040000fa
:0400c000c802000072
:020000040000fa
:0400c400c80200006e
:020000040000fa
:0400c800c80200006a
:020000040000fa
:0400cc00c802000066
:020000040000fa
:0400d000c802000062
:020000040000fa
:0400d400c80200005e
:020000040000fa
:0400d800c80200005a
:020000040000fa
:0400dc00c802000056
:020000040000fa
:0400e000c802000052
:020000040000fa
:0400e400c80200004e
:020000040000fa
:0400e800c80200004a
:020000040000fa
:0400ec00c802000046
:020000040000fa
:0400f000c802000042
:020000040000fa
:0400f400c80200003e
:020000040000fa
:0400f800c80200003a
:020000040000fa
:0400fc00c802000036
:020000040000fa
:04010000c802000031
:020000040000fa
:04010400c80200002d
:020000040000fa
:04010800c802000029
:020000040000fa
:04010c00c802000025
:020000040000fa
:04011000c802000021
:020000040000fa
:04011400c80200001d
:020000040000fa
:04011800c802000019
:020000040000fa
:04011c00c802000015
:020000040000fa
:04012000c802000011
:020000040000fa
:04012400c80200000d
:020000040000fa
:04012800c802000009
:020000040000fa
:04012c00c802000005
:020000040000fa
:04013000c802000001
:020000040000fa
:04013400c8020000fd
:020000040000fa
:04013800c8020000f9
:020000040000fa
:04013c00c8020000f5
:020000040000fa
:04014000c8020000f1
:020000040000fa
:04014400c8020000ed
:020000040000fa
:04014800c8020000e9
:020000040000fa
:04014c00c8020000e5
:020000040000fa
:04015000c8020000e1
:020000040000fa
:04015400c8020000dd
:020000040000fa
:04015800c8020000d9
:020000040000fa
:04015c00c8020000d5
:020000040000fa
:04016000c8020000d1
:020000040000fa
:04016400c8020000cd
:020000040000fa
:04020800c802000028
:020000040000fa
:04020c00c802000024
:020000040000fa
:04021000c802000020
:020000040000fa
:04021400c80200001c
:020000040000fa
:04021800c802000018
:020000040000fa
:04021c00c802000014
:020000040000fa
:04022000c802000010
:020000040000fa
:04022400c80200000c
:020000040000fa
:04022800c802000008
:020000040000fa
:04022c00c802000004
:020000040000fa
:04023000c802000000
:020000040000fa
:04023400c8020000fc
:020000040000fa
:04023800c8020000f8
:020000040000fa
:04023c00c8020000f4
:020000040000fa
:04024000c8020000f0
:020000040000fa
:04024400c8020000ec
:020000040000fa
:04024800c8020000e8
:020000040000fa
:04024c00c8020000e4
:020000040000fa
:04025000c8020000e0
:020000040000fa
:04025400c8020000dc
:020000040000fa
:04025800c8020000d8
:020000040000fa
:04025c00c8020000d4
:020000040000fa
:04026000c8020000d0
:020000040000fa
:04026400c8020000cc
:020000040000fa
:04026800c8020000c8
:020000040000fa
:04026c00c8020000c4
:020000040000fa
:04027000c8020000c0
:020000040000fa
:04027400c8020000bc
:020000040000fa
:04027800c8020000b8
:020000040000fa
:04027c00c8020000b4
:020000040000fa
:04028000c8020000b0
:020000040000fa
:04028400c8020000ac
:020000040000fa
:04028800c8020000a8
:020000040000fa
:04028c00c8020000a4
:020000040000fa
:04029000c8020000a0
:020000040000fa
:04029400c80200009c
:020000040000fa
:04029800c802000098
:020000040000fa
:04029c00c802000094
:020000040000fa
:0402a000c802000090
:020000040000fa
:0402a400c80200008c
:020000040000fa
:0402a800c802000088
:020000040000fa
:0402ac00c802000084
:020000040000fa
:0402b000c802000080
:020000040000fa
:0402b400c80200007c
:020000040000fa
:0402b800c802000078
:020000040000fa
:0402bc00c802000074
:020000040000fa
:0402c000c802000070
:020000040000fa
:0402c400c80200006c
:020000040000fa
:0402c800c802000068
:020000040000fa
:0402cc00c802000064
:020000040000fa
:0402d000c802000060
:020000040000fa
:0402d400c80200005c
:020000040000fa
:0402d800c802000058
:020000040000fa
:0402dc00c802000054
:020000040000fa
:0402e000c802000050
:020000040000fa
:0402e400c80200004c
:020000040000fa
:0402e800c802000048
:020000040000fa
:0402ec00c802000044
:020000040000fa
:0402f000c802000040
:020000040000fa
:0402f400c80200003c
:020000040000fa
:0402f800c802000038
:020000040000fa
:0402fc00c802000034
:020000040000fa
:04030000c80200002f
:020000040000fa
:04030400c80200002b
:020000040000fa
:04030800c802000027
:020000040000fa
:04030c00c802000023
:020000040000fa
:04031000c80200001f
:020000040000fa
:04031400c80200001b
:020000040000fa
:04031800c802000017
:020000040000fa
:04031c00c802000013
:020000040000fa
:04032000c80200000f
:020000040000fa
:04032400c80200000b
:020000040000fa
:04032800c802000007
:020000040000fa
:04032c00c802000003
:020000040000fa
:04033000c8020000ff
:020000040000fa
:04033400c8020000fb
:020000040000fa
:04033800c8020000f7
:020000040000fa
:04033c00c8020000f3
:020000040000fa
:04034000c8020000ef
:020000040000fa
:04034400c8020000eb
:020000040000fa
:04034800c8020000e7
:020000040000fa
:04034c00c8020000e3
:020000040000fa
:04035000c8020000df
:020000040000fa
:04035400c8020000db
:020000040000fa
:04035800c8020000d7
:020000040000fa
:04035c00c8020000d3
:020000040000fa
:04036000c8020000cf
:020000040000fa
:04036400c8020000cb
:020000040000fa
:100400002f8020000e7f24000e01880000000000d5
:10041000000020000000e000020032000001200087
:1004200020028800140007005b0007000000e000c5
:1004300003003a0080b020000100200002003700d5
:100440000000200001002000810f70000100320038
:1004500014000700000020000000e000020032004d
:100460000000020000000000380a02000000000046
:100470000040da000000fe004440a9000000200017
:100480000000e0000300320000002000a00188000e
:100490004440a800000006008a1f78008b1f7800e7
:1004a0000000060091018800800478000000eb0045
:1004b0001a003700e284440032a0b4009905ba0063
:1004c000e284440032a0b4009906ba00e2844400f9
:1004d00032a0b4000006eb00476fde00fd07b2005b
:1004e000636ce10003003a00ebff07000000eb0043
:1004f0000a003700606ce10004003a00005deb0088
:100500008b05e900fdff3e00040037006168e10053
:10051000010032000086eb000b00070019c7ba008b
:100520001905ba000e04e00003003a000a00e000da
:10053000e0ff3a0000000600fe07b2009e018800be
:100540008a047800f5ff3700395dba008b05e900b1
:100550000c003200295dba008b05e900080032006a
:100560000c00e00003003a00e284440032a0b40032
:10057000f5ff370019ddba008b05e900faff3a00f4
:100580008904e800e184440032a0b40000000600c1
:100590000040da000000fe000000050003f0a200a9
:1005a000889fbe008a9fbe008c1f7800fa0007005b
:1005b000010133006450e1004f0032006420e1008b
:1005c0005200320003826c0007003b000905d00096
:1005d0000306d000820f54000c065d0002003900b3
:1005e00002003200890178000306780085825500f8
:1005f00004003d000003fd008103fd008502ea00c8
:100600008b854200840f720002003b0060001000e6
:10061000e08018006011b8000005eb007a28e100c6
:100620000a00390006007800c75ddd00f707b20058
:10063000878075002d003700828171000a017800e3
:10064000610560008180d1000080d3008502e9004f
:10065000f9ff3b00060440008784480002003b008d
:1006600060041400e0841c000988a3000700320025
:100670008a81710082817100610164008904d10066
:100680000884d3008b05e800170037000978a30021
:1006900013003a000b00e000130034008b05e90062
:1006a0000804440089844c000a4474000978a300bb
:1006b0000d003a000b00e000070034008b05e90054
:1006c0000804440089844c0001003a000b0020001b
:1006d0000978a300f7ff32000001eb0002003700a9
:1006e000828171000a017800700007000cf0a700f9
:1006f00001f0a000b90037006420e10002003a00d8
:10070000838f6c00b90033000801be000200be00f8
:10071000b2003700889fbe008a9fbe008c1f780001
:100720009d000700a400330003866c006450e100c4
:100730002e0032006420e100330032006150e100fd
:100740002f0032006120e100310032008585550024
:10075000eb07b00009002000080420000500370066
:100760000804440089844c000a0031000603430059
:1007700087834b000001530081815b00f8ff330049
:100780000203be000800a0000804440089844c0055
:10079000f6ff3900c639dd00830173000100320025
:1007a000130020008904d1000884d3000998a30015
:1007b000050032000800a7000300a0008904d10052
:1007c0000884d3008b05e8008904d1000884d30095
:1007d0000001eb000281d2003400070001f0a1000b
:1007e0000cf0a70001f0a0007c0037006420e100bd
:1007f0007e0032000801be000200be00f7ff370095
:100800006120e100790032006000b800f3ff37009a
:100810000000200001f82700f0ff3700140020003e
:10082000de003700f4ff2f00dc0037000001be00bf
:10083000440007000470a70003f0a10003f8a30020
:1008400013003a006509b1001000320009003500bc
:100850006928e100020035000100280000000500c1
:1008600000004000818048008502e900fcff3a005a
:1008700000000600f88f4200050035008100d1001d
:100880000080d3008502e800fcff3a00000006006b
:100890008000eb00000005004f89de008201780037
:1008a000d90037006011b800e70037008100200050
:1008b000618055000b003d000b00200061fe2f0001
:1008c0000100e1001d0034008281710061016400bb
:1008d0008904d1000884d3000000e800faff3a0040
:1008e00071002000610064000300700002006000dd
:1008f0000900320061044400e0844c000988a5002e
:10090000050032008b05e8006808e10002003a00ab
:100910008904d1000884d300f20f20000258e100be
:1009200005003d00c75ddd00f907b2008980750054
:1009300008007800000006000bf827008b00780004
:1009400000000500c70ade00f107b200f50fb20093
:1009500008003200e1cf4200020032000170a00026
:1009600024000500810f700001003200040805001a
:1009700044000500810f700002003a0014000500d9
:100980008502e9000000400081c04800fcff3b00f8
:100990000170a000240005000004be00e9ff07006c
:1009a0000003be000405be000200be00e5ff070014
:1009b000844f7500000006000200be006450e10094
:1009c000050036006420e100020036000968a3003b
:1009d00001003a000800be000160a0004f06780048
:1009e0004f05be004f04be0000000600f0ff2f00c0
:1009f000f1ff2700f9ff3700889fbe008a9fbe00e5
:100a00008c1f7800e4ff0700ebff330003866c00c7
:100a10006450e100240032006420e100270032002d
:100a20006150e100220032006120e100210032002b
:100a30008b854200eb07b1000134b800003ab800e2
:100a40000804420089844a00013ab8000030b80026
:100a50008880400009014a00040033000000400083
:100a600081804800020149008b05e900c909dd00c9
:100a7000830170000100320013002000c814de0062
:100a80004814dd004709de001200b200c808de008d
:100a90000884700085ff070001f0a1000cf0a7009a
:100aa00001f0a000cdff37006120e100cfff320050
:100ab0000801be000200be00f7ff37006150e100f0
:100ac000fcff3a00c9ff3700889fbe008a9fbe0026
:100ad0008c1f78000004be009aff07000478a30072
:100ae00026003a006120e1002500320009f8a30049
:100af00025003a006420e10021003200f507b10032
:100b00000508a30002003200000040008180480078
:100b10006044b800031020000200200000004000e4
:100b2000818048000805440089854c000a05410081
:100b30008b8549000a0550008b855800030033005f
:100b40000a00be0002047400838474008301d10093
:100b50000281d300830f7100f0ff3a008904d100b5
:100b60000884d3006001490082017800c1adde0035
:100b7000fb07b0004dff070098ff37000960a00099
:100b80000800be0095ff37001202200002408800d6
:100b9000f0ff2f00f1ff270090ff3700889fbe0075
:100ba0008a9fbe00841f78007bff07004f007800fb
:100bb00011003300f0ff2f00838f6c0006003b0014
:100bc000040565000a00a7000800370009f0a60028
:100bd0001000200008003700820f5400838f5c0053
:100be000030039001000200001003e00000020003a
:100bf00009f0a7000000ea004f05be004f04be0048
:100c00000000e00000000600881f78000304780060
:100c10000300e00007003d0060001000e0801800c5
:100c200060011900e081190002003b0001f02d0075
:100c3000030037000400070008f0a70001f0a0003f
:100c40004f04780000000600889fbe008a9fbe0007
:100c500000827000040271000482710026003200dc
:100c60000004be000200be006011b8006b09200045
:100c7000950220000182cf000a0039000541b10031
:100c80000082cf00070039000541b1000982cf0082
:100c9000040039000541b1000882cf00010039008d
:100ca0000541b10005425200120032000a003b002b
:100cb00082817100610164008100d1000080d30055
:100cc0008984d3000884d3008b05e8000442e8003f
:100cd000f7ff3a00070037000804440089844c00fd
:100ce00000004800818048008b05e9000442e900cb
:100cf000f9ff3a00edfe07004f05be004f04be00ad
:040d000000000600e9
:020000040000fa
:100d04000000fa00e134800000fe2f000080600043
:100d14003001b300e0348800e1348000f00f2e008d
:100d2400808060000040210001007000e0348800f1
:100d34000135800000fe2f00008060008001b300b8
:100d44000035880001358000f00f2e00808060009f
:100d5400009021000100700000358800010f800020
:100d64000070200001007000000f8800810f8000d7
:100d74000070200001007000800f8800e0e1a800ee
:100d84000080fa00000006000000fa00913680009e
:100d940000fe2f00008060002001b3009036880020
:100da40061368000f00f2e0080806000003021004a
:100db40001007000603688008461a900600880002a
:100dc4008021ef00210c800080ff2f000080600054
:100dd4006000b300200c88008a61a90060088000cc
:100de4008621ef00510c800080ff2f0000806000fe
:100df4006000b300500c88000080fa000000060078
:100e04000400fa00008fbe00200f800080007800ec
:100e1400a00f800000804000cf80de009dfe070010
:100e2400b2fd200093042400f2fe0700923a210050
:100e340003dd2300effe07000200200043432400eb
:100e440033fe07000001be001e00be00d2fd0700f5
:100e54000200200003102400e6fe07000080fa00d0
:100e6400000006000400fa00008fbe00200f80007e
:100e740080007800a00f800000805000cf80de004a
:100e840084fe07000001be001e00be00c2fd070074
:100e94000200200003102400d6fe07000080fa00a0
:100ea400000006001400fa00889fbe008a1f780024
:100eb400400798005107980062079800730798004c
:100ec400040f9800150f98006e019000fe01900029
:100ed4006e009000fe009000c6fe0700d2cc2c00ed
:100ee400c3dc23000afe070018c0b3004e019000c3
:100ef400de01900048fe07000000e000010035001c
:100f04000044eb000804e00066003200d2cc2c0060
:100f1400c3dc23006e009000fe009000fcfd07007f
:100f240018c0b3000e0990009e0990003cfe070013
:100f34000000e00001003c000044eb000804e00075
:100f44000c003200d2cc2c00c3dc23000e0890002d
:100f54009e089000a7fe07000e0990009e099000cd
:100f6400a4fe07000200200003002400e8fd07009f
:100f74009c0037006e019000fe0190004e0090002e
:100f8400de009000e2fd070018c0b3000e099000d7
:100f94009e09900022fe07000000e00001003c00d2
:100fa4000044eb000804e000120032000e09900037
:100fb4009e0990006e009000fe0090008dfe0700d8
:100fc4000004be006e019000fe0190006e009000cf
:100fd400fe00900087fe0700d2cc2c00c3e423005f
:100fe400cbfd07000001be000800be006afd07003b
:100ff4007c0037006e019000fe0190004e009000ce
:10100400de009000c2fd07000001be000e08900043
:101014009e08900060fd0700008fbe006e019000e6
:10102400fe0190006e009000fe00900071fe07002b
:10103400d2cc2c00c3e42300b5fd07000001be00a0
:101044004e009000de00900053fd07000004be0037
:101054001e01be006e009000fe00900065fe0700b9
:101064000001be000800be004cfd07000004be00e5
:10107400d2cc2c00c3dc23001e00be005dfe0700a2
:101084001e01be005bfe07000200200003002400d6
:101094009ffd07000001be000800be003efd0700e2
:1010a400500037000e0990009e0990000e08900031
:1010b4009e0890004ffe07000004be00d2cc2c0016
:1010c400c3dc23004e009000de00900090fd07007a
:1010d4001ac0b3000001be000800be00cefd070028
:1010e4000000e000010035000045eb000a04e000c8
:1010f4000c003200d2cc2c00c3dc23000e0890007c
:101104009e0890003bfe07000e0990009e09900087
:1011140038fe070002002000030024007cfd0700c5
:1011240030003700d2cc2c00c3dc23004e009000ea
:10113400de00900076fd070062fe07000001be009d
:101144000e0890009e08900013fd070020079800e9
:101154003107980002002000030024004e00900094
:10116400de0090006afd07000004be00d2cc2c0013
:10117400c3dc23004e009000de00900064fd0700f5
:1011840050fe0700d2cc2c00c3dc230019fe07005c
:101194002e019000be01900016fe07000001be0063
:1011a4000800be00fdfc07000004be00d2cc2c00e9
:1011b400c3dc23002e009000be0090000dfe07004b
:1011c4002e019000be0190000afe070002002000dc
:1011d400030024004efd07000001be000800be000d
:1011e400edfc07004f0578004f04be000080fa00b4
:1011f400000006001c00fa00881f7800200f9800e9
:10120400310f9800420f9800530f98006000b80007
:10121400400798005107980005e1a80020048000c9
:10122400680060000000e000720032008460a900e1
:10123400a2702d0033c223004e009000de00900007
:10124400d6fc07004007980051079800d2cc2c0028
:10125400c3ec23004e089000de089000e5fd070073
:101264004e029000de0290000001be002e089000a5
:10127400be0890000bff0700e1fe0700600798001e
:10128400710798006000b800f6fe0700000f980090
:10129400110f98000e0990009e0990006e009000b6
:1012a400fe009000bdfc0700008fbe000e099000f8
:1012b4009e0990006e009000fe009000b6fc0700ae
:1012c400200798003107980018c0b300a29929009c
:1012d40093e123002e009000be00900050fd070013
:1012e4000000e00001003c000044eb000804e000c2
:1012f4000500320010ae270041e1230020079800ca
:10130400310798000f00370018c0b300d2cc2c006e
:10131400c3dc23002e009000be0090003efd0700b9
:101324000000e000010035000044eb000804e00088
:1013340004003200d0cc2c00c1dc2300200798002c
:101344003107980018c0b300a299290093e1230043
:101354001e00be0030fd07000000e0000100350063
:101364000044eb000804e0000400320020852b0058
:10137400e1e12300008fbe000d00370018c0b30068
:10138400d2cc2c00c3e423001e00be0024fd0700c1
:101394000000e00001003c000044eb000804e00011
:1013a40003003200d0cc2c00c1e42300008fbe0027
:1013b400600880008000eb0039fd07001e01be00bc
:1013c4008cfd070018fd070000007800000c880061
:1013d400600880008000eb0031fd07002e019000c2
:1013e400be01900083fd07000ffd07000000780098
:1013f400300c8800200f800080007800a00f80004f
:1014040000804000cf80de0022fd0700b2fd2000f6
:101414009304240077fd0700923a210003dd2300a2
:1014240074fd07000200200043432400b8fc0700b9
:1014340018c0b3002e099000be099000f6fc070006
:101444000000e000010035000044eb000804e00067
:1014540072ff3a0005e1a9008021ef008621ef0028
:101464004f0478000080fa00000006000800fa002b
:101474004400070022fe070000352c0010088800f5
:1014840021088000f0fc2f00008060000040a000d4
:101494002008880000352c0060088800810880003e
:1014a400f0fc2f00008060000040a000800888004d
:1014b40011e1a80034fe0700200f8000000f78001f
:1014c400a00f8000100798008016200020079800c5
:1014d4000000eb00300798000200200003f823000e
:1014e4000000200001f8230042ff0700ffff37003f
:1014f4000000fa002143a90050c0b30024e3b70060
:101504002043a8003003a8002c03a900011980007f
:10151400f0f12f00008060000060a0000019880036
:1015240021e3a8000080fa00000006000000fa0091
:101534002023a9000080fa00000006000000fa0041
:101544000019800000407800614060000080fb00ca
:101554000080fa00000006000000fa000019800074
:10156400610060000000e000030032002003a900d5
:101574000018800001003700000028000080fa00f5
:10158400000006000000fa00e0012000303a880064
:10159400213a8000f0f32f0000806000203a880098
:1015a400213a800000fe2f0000806000203a88006d
:1015b4003200200080072000a1092000337420009d
:1015c400804978008149780082497800120020001f
:1015d40060042000710520002374200080497800f5
:1015e400814978008249780000000000113a8000a7
:1015f400000027008080600000002300808f5000de
:0c160400faff3a000080fa000000060027
:020000040000fa
:1016100000080000020000000000000000000000c0
:020000040000fa
:0200000401f009
:04000c008000000070
:020000040000fa
:0200000401f009
:040010006500000087
:020000040000fa
:0200000401f009
:040014005f00000089
:020000040000fa
:0200000401f009
:04001c00dfff000002
:00000001FF
