:020000040000fa
:080000000002040000000000f2
:020000040000fa
:0400080024030000cd
:020000040000fa
:04000c0024030000c9
:020000040000fa
:0400100024030000c5
:020000040000fa
:0400140024030000c1
:020000040000fa
:0400180024030000bd
:020000040000fa
:04001c0024030000b9
:020000040000fa
:0400200024030000b5
:020000040000fa
:0400240024030000b1
:020000040000fa
:0400280024030000ad
:020000040000fa
:04002c0024030000a9
:020000040000fa
:0400300024030000a5
:020000040000fa
:04003400c8020000fe
:020000040000fa
:04003800240300009d
:020000040000fa
:04003c002403000099
:020000040000fa
:040040002403000095
:020000040000fa
:040044002403000091
:020000040000fa
:04004800240300008d
:020000040000fa
:04004c002403000089
:020000040000fa
:040050002403000085
:020000040000fa
:040054002403000081
:020000040000fa
:04005800240300007d
:020000040000fa
:04005c002403000079
:020000040000fa
:040060002403000075
:020000040000fa
:040064002403000071
:020000040000fa
:04006800240300006d
:020000040000fa
:04006c002403000069
:020000040000fa
:040070002403000065
:020000040000fa
:040074002403000061
:020000040000fa
:04007800240300005d
:020000040000fa
:04007c002403000059
:020000040000fa
:040080002403000055
:020000040000fa
:040084002403000051
:020000040000fa
:04008800240300004d
:020000040000fa
:04008c002403000049
:020000040000fa
:040090002403000045
:020000040000fa
:040094002403000041
:020000040000fa
:04009800240300003d
:020000040000fa
:04009c002403000039
:020000040000fa
:0400a0002403000035
:020000040000fa
:0400a4002403000031
:020000040000fa
:0400a800240300002d
:020000040000fa
:0400ac002403000029
:020000040000fa
:0400b0002403000025
:020000040000fa
:0400b4002403000021
:020000040000fa
:0400b800240300001d
:020000040000fa
:0400bc002403000019
:020000040000fa
:0400c0002403000015
:020000040000fa
:0400c4002403000011
:020000040000fa
:0400c800240300000d
:020000040000fa
:0400cc002403000009
:020000040000fa
:0400d0002403000005
:020000040000fa
:0400d4002403000001
:020000040000fa
:0400d80024030000fd
:020000040000fa
:0400dc0024030000f9
:020000040000fa
:0400e00024030000f5
:020000040000fa
:0400e40024030000f1
:020000040000fa
:0400e80024030000ed
:020000040000fa
:0400ec0024030000e9
:020000040000fa
:0400f00024030000e5
:020000040000fa
:0400f40024030000e1
:020000040000fa
:0400f80024030000dd
:020000040000fa
:0400fc0024030000d9
:020000040000fa
:0401000024030000d4
:020000040000fa
:0401040024030000d0
:020000040000fa
:0401080024030000cc
:020000040000fa
:04010c0024030000c8
:020000040000fa
:0401100024030000c4
:020000040000fa
:0401140024030000c0
:020000040000fa
:0401180024030000bc
:020000040000fa
:04011c0024030000b8
:020000040000fa
:0401200024030000b4
:020000040000fa
:0401240024030000b0
:020000040000fa
:0401280024030000ac
:020000040000fa
:04012c0024030000a8
:020000040000fa
:0401300024030000a4
:020000040000fa
:0401340024030000a0
:020000040000fa
:04013800240300009c
:020000040000fa
:04013c002403000098
:020000040000fa
:040140002403000094
:020000040000fa
:040144002403000090
:020000040000fa
:0402080024030000cb
:020000040000fa
:04020c0024030000c7
:020000040000fa
:0402100024030000c3
:020000040000fa
:0402140024030000bf
:020000040000fa
:0402180024030000bb
:020000040000fa
:04021c0024030000b7
:020000040000fa
:0402200024030000b3
:020000040000fa
:0402240024030000af
:020000040000fa
:0402280024030000ab
:020000040000fa
:04022c0024030000a7
:020000040000fa
:0402300024030000a3
:020000040000fa
:04023400240300009f
:020000040000fa
:04023800240300009b
:020000040000fa
:04023c002403000097
:020000040000fa
:040240002403000093
:020000040000fa
:04024400240300008f
:020000040000fa
:04024800240300008b
:020000040000fa
:04024c002403000087
:020000040000fa
:040250002403000083
:020000040000fa
:04025400240300007f
:020000040000fa
:04025800240300007b
:020000040000fa
:04025c002403000077
:020000040000fa
:040260002403000073
:020000040000fa
:04026400240300006f
:020000040000fa
:04026800240300006b
:020000040000fa
:04026c002403000067
:020000040000fa
:040270002403000063
:020000040000fa
:04027400240300005f
:020000040000fa
:04027800240300005b
:020000040000fa
:04027c002403000057
:020000040000fa
:040280002403000053
:020000040000fa
:04028400240300004f
:020000040000fa
:04028800240300004b
:020000040000fa
:04028c002403000047
:020000040000fa
:040290002403000043
:020000040000fa
:04029400240300003f
:020000040000fa
:04029800240300003b
:020000040000fa
:04029c002403000037
:020000040000fa
:0402a0002403000033
:020000040000fa
:0402a400240300002f
:020000040000fa
:0402a800240300002b
:020000040000fa
:0402ac002403000027
:020000040000fa
:0402b0002403000023
:020000040000fa
:0402b400240300001f
:020000040000fa
:0402b800240300001b
:020000040000fa
:0402bc002403000017
:020000040000fa
:0402c0002403000013
:020000040000fa
:0402c400240300000f
:020000040000fa
:0402c800240300000b
:020000040000fa
:0402cc002403000007
:020000040000fa
:0402d0002403000003
:020000040000fa
:0402d40024030000ff
:020000040000fa
:0402d80024030000fb
:020000040000fa
:0402dc0024030000f7
:020000040000fa
:0402e00024030000f3
:020000040000fa
:0402e40024030000ef
:020000040000fa
:0402e80024030000eb
:020000040000fa
:0402ec0024030000e7
:020000040000fa
:0402f00024030000e3
:020000040000fa
:0402f40024030000df
:020000040000fa
:0402f80024030000db
:020000040000fa
:0402fc0024030000d7
:020000040000fa
:0403000024030000d2
:020000040000fa
:0403040024030000ce
:020000040000fa
:0403080024030000ca
:020000040000fa
:04030c0024030000c6
:020000040000fa
:0403100024030000c2
:020000040000fa
:0403140024030000be
:020000040000fa
:0403180024030000ba
:020000040000fa
:04031c0024030000b6
:020000040000fa
:0403200024030000b2
:020000040000fa
:0403240024030000ae
:020000040000fa
:0403280024030000aa
:020000040000fa
:04032c0024030000a6
:020000040000fa
:0403300024030000a2
:020000040000fa
:04033400240300009e
:020000040000fa
:04033800240300009a
:020000040000fa
:04033c002403000096
:020000040000fa
:040340002403000092
:020000040000fa
:04034400240300008e
:020000040000fa
:100400008f9920000eff27000e01880000000000d9
:10041000000020000000e000020032000001200087
:100420002002880014000700890007000000e00097
:1004300003003a00e0c7200001002000020037005e
:100440000000200001002000810f70000100320038
:1004500014000700000020000000e000020032004d
:100460000000020000000000180b02000000000065
:100470000040da000000fe004440a9000000200017
:100480000000e0000300320000002000a00188000e
:100490004440a800000006008a1f78008b1f7800e7
:1004a0000000060091018800800478000000eb0045
:1004b0001a003700e284440032a0b4009905ba0063
:1004c000e284440032a0b4009906ba00e2844400f9
:1004d00032a0b4000006eb00476fde00fd07b2005b
:1004e000636ce10003003a00ebff07000000eb0043
:1004f0000a003700606ce10004003a00005deb0088
:100500008b05e900fdff3e00040037006168e10053
:10051000010032000086eb000b00070019c7ba008b
:100520001905ba000e04e00003003a000a00e000da
:10053000e0ff3a0000000600fe07b2009e018800be
:100540008a047800f5ff3700395dba008b05e900b1
:100550000c003200295dba008b05e900080032006a
:100560000c00e00003003a00e284440032a0b40032
:10057000f5ff370019ddba008b05e900faff3a00f4
:100580008904e800e184440032a0b40000000600c1
:100590003600f800809fbe00829fbe00849fbe0090
:1005a000869fbe003400f80000002000a0018800f3
:1005b0000000fa008460a900104080002140800003
:1005c00002002000a34f2400800007000002be00ac
:1005d00000408000c200dd008080200000804000dc
:1005e0001000be000001be000400be003001070084
:1005f000020020000350240017000700b500070088
:10060000000078004c040700004080000000e80073
:10061000004088000140800040062000808f50008c
:10062000010034000028ef000080fa003400f900d7
:100630004f03be004f02be004f01be004f00be0080
:100640003600f900004006000040da000000fe001d
:100650000000050003f0a200889fbe008a9fbe0034
:100660008c1f7800fa000700010133006450e1009c
:100670004f0032006420e1005200320003826c001f
:1006800007003b000905d0000306d000820f54008c
:100690000c065d000200390002003200890178007a
:1006a000030678008582550004003d000003fd002c
:1006b0008103fd008502ea008b854200840f7200f1
:1006c00002003b0060001000e08018006011b800dc
:1006d0000005eb007a28e1000a00390006007800e6
:1006e000c75ddd00f707b200878075002d00370079
:1006f000828171000a017800610560008180d1006b
:100700000080d3008502e900f9ff3b0006044000a9
:100710008784480002003b0060041400e0841c0051
:100720000988a300070032008a817100828171006c
:10073000610164008904d1000884d3008b05e800be
:10074000170037000978a30013003a000b00e000ff
:10075000130034008b05e9000804440089844c0030
:100760000a4474000978a3000d003a000b00e00071
:10077000070034008b05e9000804440089844c001c
:1007800001003a000b0020000978a300f7ff3200b7
:100790000001eb0002003700828171000a0178003d
:1007a000700007000cf0a70001f0a000b9003700ae
:1007b0006420e10002003a00838f6c00b90033002e
:1007c0000801be000200be00b2003700889fbe00d4
:1007d0008a9fbe008c1f78009d000700a400330094
:1007e00003866c006450e1002e0032006420e100ba
:1007f000330032006150e1002f0032006120e1003f
:100800003100320085855500eb07b000090020005b
:1008100008042000050037000804440089844c00c7
:100820000a0031000603430087834b000001530098
:1008300081815b00f8ff33000203be000800a000c6
:100840000804440089844c00f6ff3900c639dd00f5
:100850008301730001003200130020008904d100dd
:100860000884d3000998a300050032000800a700ff
:100870000300a0008904d1000884d3008b05e800a0
:100880008904d1000884d3000001eb000281d2006a
:100890003400070001f0a1000cf0a70001f0a00057
:1008a0007c0037006420e1007e0032000801be00b9
:1008b0000200be00f7ff37006120e100790032003e
:1008c0006000b800f3ff37000000200001f82700a7
:1008d000f0ff37000001be00480007000470a700c9
:1008e00003f0a1006509b100160032000d003500cb
:1008f0006828e10006003500f0ff2f00f1ff270017
:100900000300e00013003b00010028000000050088
:1009100000004000818048008502e900fcff3a00a9
:1009200008003700f88f420002003c008000eb0016
:10093000000005008100d1000080d3008502e8009e
:10094000fcff3a000300e00002003b0060001000e2
:10095000e0801800000006004f89de008201780068
:100960008900370081002000618055000b003d00a8
:100970000b00200061fe2f000100e1001d0034008b
:1009800082817100610164008904d1000884d30070
:100990000000e800faff3a007100200061006400e6
:1009a000030070000200600009003200610444008e
:1009b000e0844c000988a500050032008b05e800a2
:1009c0006808e10002003a008904d1000884d300dd
:1009d000f20f20000258e10005003d00c75ddd0078
:1009e000f907b20089807500080078000000060051
:1009f0000bf827008b00780000000500c70ade0016
:100a0000f107b200f50fb20008003200e1cf42005a
:100a1000020032000170a00024000500810f700068
:100a2000010032000408050044000500810f700039
:100a300002003a00140005008502e90000004000b1
:100a400081c04800fcff3b000170a00024000500ad
:100a50000004be00e9ff07000003be000405be005d
:100a60000200be00e5ff0700844f7500000006008d
:100a70000200be006450e100050036006420e10081
:100a8000020036000968a30001003a000800be0019
:100a90000160a0004f0678004f05be004f04be0065
:100aa00000000600f0ff2f00f1ff2700f9ff3700dc
:100ab000889fbe008a9fbe008c1f7800e4ff07005d
:100ac000ebff330003866c006450e1002400320029
:100ad0006420e100270032006150e1002200320072
:100ae0006120e100210032008b854200eb07b1005c
:100af0000134b800003ab8000804420089844a0072
:100b0000013ab8000030b8008880400009014a006e
:100b100004003300000040008180480002014900c9
:100b20008b05e900c909dd00830170000100320076
:100b300013002000c814de004814dd004709de0061
:100b40001200b200c808de000884700085ff0700ac
:100b500001f0a1000cf0a70001f0a000cdff3700cc
:100b60006120e100cfff32000801be000200be009c
:100b7000f7ff37006150e100fcff3a00c9ff370082
:100b80000001eb003f003700881f78000304780065
:100b90000300e00007003d0060001000e080180046
:100ba00060011900e081190002003b0001f02d00f6
:100bb000030037000400070008f0a70001f0a000c0
:100bc0004f04780000000600889fbe008a9fbe0088
:100bd000008270000402710004827100260032005d
:100be0000004be000200be006011b8006b092000c6
:100bf000950220000182cf000a0039000541b100b2
:100c00000082cf00070039000541b1000982cf0002
:100c1000040039000541b1000882cf00010039000d
:100c20000541b10005425200120032000a003b00ab
:100c300082817100610164008100d1000080d300d5
:100c40008984d3000884d3008b05e8000442e800bf
:100c5000f7ff3a00070037000804440089844c007d
:100c600000004800818048008b05e9000442e9004b
:100c7000f9ff3a003bff07004f05be004f04be00de
:100c800000000600889fbe008a9fbe008c9fbe00a9
:100c9000820578000004be0058ff07000800be006f
:100ca0006420e1000700390002003a00f1ff27004c
:100cb000f0ff2f000160a0001202200032408800e7
:100cc000550037006120e10003003a000b00a70047
:100cd00001f823005000370001f0a10002002100bc
:100ce00093642400500007000800be000400350093
:100cf000b2fd2000930c24004d0007000004be004c
:100d00000005eb000b00a6004f0dde0001f0a10076
:100d10000004be0032982f0023ea230064ff07007e
:100d20000001eb0003f023000b00a70003f82300f1
:100d300049fe0700e7fe07000000a7000a00a20026
:100d400005ff07000b00e000030032000200200056
:100d500003f023003ffe070001f0a2000006be00e2
:100d6000020020009304240051ff07000801be0088
:100d700039fe0700809fbe000c00be0022a22a00a0
:100d8000d3a723004aff07004f01be0032fe070031
:100d90000004be0001f0a10002002000039823001f
:100da000210007000800be00190035000001be0048
:100db0003fff07000006be00b2c52900e362230022
:100dc0003bff070022222b00f3942b0022fe07009a
:100dd0000c01be0036ff0700e273280083c0230029
:100de0001dfe07000c01be0031ff070042aa2a00c9
:100df000a3e22b0018fe07000c01be002cff070029
:100e00000801be002aff07000801be0012fe07000d
:100e10000a00a70001f0a2004f06be004f05be0069
:100e20004f04be00000006001400200051003700ef
:100e30000400200000003700889fbe008a9fbe008b
:100e40008c1f78004f26dd0001ff070008ff3300ec
:100e50006120e100430032006250e10041003e00a9
:100e60003e0039006420e1003c003200058255005c
:100e70000f003b000402e80038003a00800f5300e6
:100e8000818f5b00350034000800be0003f0a10034
:100e900001f0a60003f0a0000cf0a700eefd070093
:100ea000fcfe37000603430087834b000c464600d8
:100eb0000005530081855b00020033000a03be0079
:100ec0000c00a0000402e900f6ff3b008505780055
:100ed0000602430087824b0004003a006000b8001d
:100ee00009f0a70001f0a000eafe3700000252005e
:100ef00081825a000704e000040033000603430027
:100f000087834b008b05e900faff3700090578005d
:100f10000604be000203be006011b80091fe070087
:100f2000e00f5200e08f5a000700350002003c003d
:100f30000c08a300040032000601be0003f0a0006c
:100f40000cf0a700c4fd07000a85680001f0a100ad
:100f50000af0a70001f0a000cefe37000800be0096
:100f6000ccfe3700100220000cf0a60030408800b4
:100f7000ccfe3700889fbe008a9fbe00841f780089
:100f8000b3fe07004f00780011003300f0ff2f0080
:100f9000838f6c0006003b00040565000a00a70073
:100fa0000800370009f0a6001000200008003700f4
:100fb000820f5400838f5c00030039001000200072
:100fc00001003e000000200009f0a7000000ea0038
:100fd0004f05be004f04be000000e0000000060008
:020000040000fa
:100fe0000200fa00004f780091168000f0fc2f00fc
:100ff0000080600090168800e116800000f02f004d
:1010000000806000e01688009e00fb00e016800073
:1010100001007000e0168800d6a2a900cbe2a9006a
:10102000d682a800000000000000000000000000c0
:1010300000000000d682a90000d42000310020006a
:10104000200207000080fa00000006000000fa00fd
:10105000007c2200910020001a020700e1168000a7
:1010600000f02f0000806000e0168800d6a2a900e2
:10107000cbe2a900d682a900c116800000f02f00a3
:1010800000806000c0168800d2a2a900c7e2a900b3
:10109000d282a900e116800000f02f0000806000dd
:1010a000e0168800e1168000800320000100700037
:1010b000e0168800d682a8000000000000000000b2
:1010c0000000000000000000d682a90000d420002b
:1010d00031002000fb010700e116800000f02f0026
:1010e00000806000e0168800e11680008003200088
:1010f00001007000e0168800d682a8000000000001
:10110000000000000000000000000000d682a900de
:1011100000f4210001002000ea010700e116800030
:1011200000f02f0000806000e0168800e1168000cb
:101130008003200001007000e0168800d682a8001d
:10114000000000000000000000000000000000009f
:10115000d682a90000f4210001002000d901070077
:1011600080c3b3009eff0700c0c0b3009cff070010
:1011700060c0b3009aff070010c0b30098ff0700db
:101180000080fa00000006000200fa00004f78001c
:1011900091168000f0fc2f000080600090168800ff
:1011a000d6a2a900cbe2a800e116800000f02f0033
:1011b00000806000e01688009e00fb00e0168000c2
:1011c00001007000e0168800d682a8000000000030
:1011d000000000000000000000000000d682a9000e
:1011e000cbe2a90000e8230001002000b5010700c0
:1011f0000080fa00000006000200fa00000f7800ec
:10120000040037001e00780010407800deff070061
:101210001e0fe8001e007800104078000004e00077
:10122000f8ff3a000080fa00000006000200fa0011
:10123000004f78001e4078000074a00068ff07008f
:101240000080fa00000006000000fa0000c1b300b0
:1012500063ff07000080fa00000006000000fa00ab
:1012600010c0b3005eff07000080fa000000060017
:101270000000fa0020c0b30059ff07000080fa0008
:10128000000006000000fa0000ccb30054ff070085
:101290000080fa00000006000200fa00004f78000b
:1012a0001e40780063406000c040b3004cff070060
:1012b0000080fa00000006000200fa00004f7800eb
:1012c0001e4078000004e00003003200c0c1b300fb
:1012d00043ff07000200370080c1b30040ff070052
:1012e0000080fa00000006000000fa00911680005d
:1012f000f00f2f0000806000901688000080fa0038
:10130000000006000000fa00d702a800d722a900ba
:10131000d742a900d762a900803e2000010020002a
:101320006801070041168000001020000080600066
:101330000000e0000200320010c3b3007f0037005d
:101340004116800000202000008060000000e000c6
:101350000200320040c3b30078003700411680001d
:1013600000402000008060000000e0000200320029
:1013700070c3b30071003700411680000080200068
:10138000008060000000e0000200320010c4b300e2
:101390006a003700d702a900d722a800d742a900c7
:1013a000d762a900803e200001002000450107000f
:1013b0004116800000102000008060000000e00066
:1013c0000200320020c3b3005c00370041168000e9
:1013d00000202000008060000000e00002003200d9
:1013e00050c3b30055003700411680000040200074
:1013f000008060000000e0000200320080c3b30003
:101400004e00370041168000008020000080600000
:101410000000e0000200320020c4b30047003700a3
:10142000d702a900d722a900d742a800d762a900f5
:10143000803e2000010020002201070041168000ac
:1014400000102000008060000000e0000200320078
:1014500030c3b3003900370041168000002020005f
:10146000008060000000e0000200320060c3b300b2
:1014700032003700411680000040200000806000ec
:101480000000e0000200320090c3b3002b003700e0
:101490004116800000802000008060000000e00015
:1014a0000200320030c4b30024003700d702a90084
:1014b000d722a900d742a900d762a800803e200009
:1014c00001002000ff0007004116800000102000ee
:1014d000008060000000e0000200320060c4b30041
:1014e00016003700411680000020200000806000b8
:1014f0000000e0000200320050c4b3000f003700cb
:101500004116800000402000008060000000e000e4
:101510000200320040c4b3000800370041168000ca
:1015200000802000008060000000e0000200320027
:1015300030c4b30001003700a0c7b3000080fa0038
:10154000000006000400fa00889fbe001007980003
:101550000000eb00000f7800180037001e0090001c
:10156000cf80de00fcfc07000004be001e007800f7
:1015700000004000cf80de00f7fc070002fd2000e5
:10158000930424004afd070002002000832c24005d
:101590008efc07007afd07000001be000800be00b7
:1015a00043fd07001e017800c211dd00828020008b
:1015b000028141000089be001e0fe80030062000b5
:1015c0009e007800808f5000e4ff34004f04be007e
:1015d0000080fa00000006000000fa0000c42900a4
:1015e0007008880091088000f0fc2f0000806000e7
:1015f0009008880013e1a8002143a90050c0b3005f
:1016000024e3b7002043a8003003a8002c03a9005e
:1016100001198000f0f12f00008060000060a00040
:101620000019880021e3a8000080fa0000000600ed
:101630000000fa00810007000080eb0060198800bc
:10164000e5ff0700007d2000beff0700280007001f
:1016500025ff0700007d2000100888002108800079
:10166000f0fc2f0000806000200888009460a80033
:1016700005e1a80001003700000000005d00070040
:101680000000e00007003200610007000140200078
:1016900001004000cf80de00affc07001040880052
:1016a0002140880017ff070011c4b300814f50008c
:1016b000f1ff3a00200880000080ea004f00de00c1
:1016c000004078000080fb004f00dd002208800011
:1016d000f1ff2700810061000100700020088800f0
:1016e00000902000d103200076000700e3ff3700c0
:1016f0000000fa00c642a900ca42a8004342a8005e
:1017000011128000c0ff2f00008060000000a000c8
:101710001012880010128000c001b300101288005f
:1017200042a2a80042c2a8004302a90041e2a800c8
:101730000080fa00000006000200fa00000f7800a6
:10174000f0ff20009e007800808f500003003400de
:10175000f0ff2000000f7800050037001e00780021
:101760000000e00002003d000000eb00000f7800e8
:101770008540a900ca42a900000023001e00700095
:10178000401288000000000021048000004020007a
:10179000008060000000e000fbff3200ca42a800a9
:1017a000401280000080fa00000006000000fa00ed
:1017b0002143a90050c0b30024e3b7002043a80090
:1017c0003003a8002c03a90001198000f0f12f00bc
:1017d000008060000019880021e3a8000080fa0062
:1017e000000006000000fa002023a9000080fa0093
:1017f000000006000000fa00001980000040780098
:10180000614060000080fb000080fa0000000600dc
:101810000000fa0000198000610060000000e00094
:10182000030032002003a9000018800001003700e7
:10183000000028000080fa00000006000000fa0006
:1018400060022000303a8800213a8000f0f32f0037
:1018500000806000203a8800213a800000fe2f00be
:1018600000806000203a88003200200080072000bd
:10187000a109200033742000804978008149780054
:1018800082497800120020006004200071052000c9
:1018900023742000804978008149780082497800cb
:1018a00000000000113a80000000270080806000e6
:1018b00000002300808f5000faff3a000080fa00f9
:0418c000000006001e
:020000040000fa
:1018c400f03fb1000180b10006003500ee030900cd
:1018d40000000000403fb1000180b100fbff3d006b
:1018e4001000b000203fb000020035000080090065
:0818f4000000000000000600e6
:020000040000fa
:1018fc000808000090010000000000000008000033
:10190c0006000000000000000608000002000000b5
:08191c000000000000000000c3
:020000040000fa
:0200000401f009
:04000c00f8ff0000f9
:020000040000fa
:0200000401f009
:040010007dff000070
:020000040000fa
:0200000401f009
:040014007fff00006a
:020000040000fa
:0200000401f009
:04001c00dfff000002
:00000001FF
