:020000040000fa
:080000000002040000000000f2
:020000040000fa
:100008009402000094020000940200009402000090
:100018009402000094020000940200009402000080
:100028009402000094020000940200009402000070
:10003800940200009402000094020000f00a0000fc
:100048009402000094020000940200009402000050
:100058009402000094020000940200009402000040
:100068009402000094020000940200009402000030
:100078009402000094020000940200009402000020
:100088009402000094020000940200009402000010
:100098009402000094020000940200009402000000
:1000a80094020000940200009402000094020000f0
:1000b80094020000940200009402000094020000e0
:1000c80094020000940200009402000094020000d0
:1000d80094020000940200009402000094020000c0
:1000e80094020000940200009402000094020000b0
:1000f80094020000940200009402000094020000a0
:10010800940200009402000094020000940200008f
:10011800940200009402000094020000940200007f
:10012800940200009402000094020000940200006f
:10013800940200009402000094020000940200005f
:10014800940200009402000094020000940200004f
:10015800940200009402000094020000940200003f
:10016800940200009402000094020000940200002f
:10017800940200009402000094020000940200001f
:10018800940200009402000094020000940200000f
:1001980094020000940200009402000094020000ff
:1001a80094020000940200009402000094020000ef
:1001b80094020000940200009402000094020000df
:1001c80094020000940200009402000094020000cf
:1001d80094020000940200009402000094020000bf
:1001e80094020000940200009402000094020000af
:0801f8009402000094020000d3
:020000040000fa
:10020800940200009402000094020000940200008e
:10021800940200009402000094020000940200007e
:10022800940200009402000094020000940200006e
:10023800940200009402000094020000f00a0000fa
:10024800940200009402000094020000940200004e
:10025800940200009402000094020000940200003e
:10026800940200009402000094020000940200002e
:10027800940200009402000094020000940200001e
:10028800940200009402000094020000940200000e
:1002980094020000940200009402000094020000fe
:1002a80094020000940200009402000094020000ee
:1002b80094020000940200009402000094020000de
:1002c80094020000940200009402000094020000ce
:1002d80094020000940200009402000094020000be
:1002e80094020000940200009402000094020000ae
:1002f800940200009402000094020000940200009e
:10030800940200009402000094020000940200008d
:10031800940200009402000094020000940200007d
:10032800940200009402000094020000940200006d
:10033800940200009402000094020000940200005d
:10034800940200009402000094020000940200004d
:10035800940200009402000094020000940200003d
:10036800940200009402000094020000940200002d
:10037800940200009402000094020000940200001d
:10038800940200009402000094020000940200000d
:1003980094020000940200009402000094020000fd
:1003a80094020000940200009402000094020000ed
:1003b80094020000940200009402000094020000dd
:1003c80094020000940200009402000094020000cd
:1003d80094020000940200009402000094020000bd
:1003e80094020000940200009402000094020000ad
:0803f8009402000094020000d1
:020000040000fa
:100400006f9920000eff27000e01880000000000f9
:1004100000012000200288000c000700c0c320005b
:100420000100200011000700000020000000e00093
:100430000200320000000200000000003e0a02003c
:10044000000000000040da000000fe004440a90067
:10045000000020000000e000030032000000200047
:10046000a00188004440a800000006009101880017
:10047000800078000000eb0015003700e2804000ab
:1004800032a0b4009101ba00e280400032a0b40072
:100490009102ba00e280400032a0b4000002eb00fa
:1004a000472bde00f507b200602ce10004003a00a3
:1004b0000059eb008301e900fdff3e000400370016
:1004c0006128e100010032000082eb000400070017
:1004d0001101ba000200e000e8ff3a000000060047
:1004e0003159ba008301e9000c0032002159ba00e9
:1004f0008301e900080032000400e00003003a0034
:10050000e280400032a0b400f5ff370011d9ba00f4
:100510008301e900faff3a008100e800e180400031
:1005200032a0b400000006000040da000000fe0027
:1005300003f0a200889fbe008a9fbe008c1f780037
:10054000fa000700010133006450e1004f0032005f
:100550006420e1005200320003826c0007003b007f
:100560000905d0000306d000820f54000c065d0080
:100570000200390002003200890178000306780089
:100580008582550004003d000003fd008103fd004d
:100590008502ea008b854200840f720002003b0056
:1005a00060001000e08018006011b8000005eb004a
:1005b0007a28e1000a00390006007800c75ddd00f6
:1005c000f707b200878075002d0037008281710027
:1005d0000a017800610560008180d1000080d300ad
:1005e0008502e900f9ff3b000604400087844800cb
:1005f00002003b0060041400e0841c000988a30092
:10060000070032008a8171008281710061016400fb
:100610008904d1000884d3008b05e8001700370057
:100620000978a30013003a000b00e0001300340027
:100630008b05e9000804440089844c000a447400d6
:100640000978a3000d003a000b00e0000700340019
:100650008b05e9000804440089844c0001003a003d
:100660000b0020000978a300f7ff32000001eb0027
:1006700002003700828171000a01780070000700d3
:100680000cf0a70001f0a000b90037006420e100e1
:1006900002003a00838f6c00b90033000801be00ed
:1006a0000200be00b2003700889fbe008a9fbe00d5
:1006b0008c1f78009d000700a400330003866c00a7
:1006c0006450e1002e0032006420e100330032006b
:1006d0006150e1002f0032006120e1003100320062
:1006e00085855500eb07b0000900200008042000b4
:1006f000050037000804440089844c000a003100da
:100700000603430087834b000001530081815b0097
:10071000f8ff33000203be000800a00008044400f4
:1007200089844c00f6ff3900c639dd00830173006f
:1007300001003200130020008904d1000884d30096
:100740000998a300050032000800a7000300a000dc
:100750008904d1000884d3008b05e8008904d10006
:100760000884d3000001eb000281d20034000700ae
:1007700001f0a1000cf0a70001f0a0007c00370000
:100780006420e1007e0032000801be000200be00cd
:10079000f7ff37006120e100790032006000b80007
:1007a000f3ff37000000200001f82700f0ff3700ba
:1007b0000001be00480007000470a70003f0a1007c
:1007c0006509b100160032000d0035006828e1000f
:1007d00006003500f0ff2f00f1ff27000300e000c6
:1007e00013003b000100280000000500000040004d
:1007f000818048008502e900fcff3a0008003700cc
:10080000f88f420002003c008000eb000000050071
:100810008100d1000080d3008502e800fcff3a008f
:100820000300e00002003b0060001000e0801800c0
:10083000000006004f89de00820178008900370041
:1008400081002000618055000b003d000b0020005e
:1008500061fe2f000100e1001d0034008281710063
:10086000610164008904d1000884d3000000e8001d
:10087000faff3a007100200061006400030070007c
:10088000020060000900320061044400e0844c0072
:100890000988a500050032008b05e8006808e10022
:1008a00002003a008904d1000884d300f20f20002e
:1008b0000258e10005003d00c75ddd00f907b20008
:1008c0008980750008007800000006000bf82700fa
:1008d0008b00780000000500c70ade00f107b200b7
:1008e000f50fb20008003200e1cf420002003200f2
:1008f0000170a00024000500810f7000010032008b
:100900000408050044000500810f700002003a0051
:10091000140005008502e9000000400081c0480085
:10092000fcff3b000170a000240005000004be0095
:10093000e9ff07000003be000405be000200be0080
:10094000e5ff0700844f7500000006000200be00ae
:100950006450e100050036006420e100020036002a
:100960000968a30001003a000800be000160a00071
:100970004f0678004f05be004f04be000000060081
:10098000f0ff2f00f1ff2700f9ff3700889fbe001e
:100990008a9fbe008c1f7800e4ff0700ebff330046
:1009a00003866c006450e100240032006420e10002
:1009b000270032006150e100220032006120e10096
:1009c000210032008b854200eb07b1000134b800f2
:1009d000003ab8000804420089844a00013ab8008d
:1009e0000030b8008880400009014a00040033004c
:1009f0000000400081804800020149008b05e900a9
:100a0000c909dd00830170000100320013002000dd
:100a1000c814de004814dd004709de001200b200f1
:100a2000c808de000884700085ff070001f0a100ff
:100a30000cf0a70001f0a000cdff37006120e1001d
:100a4000cfff32000801be000200be00f7ff3700f2
:100a50006150e100fcff3a00c9ff37000001eb00e4
:100a60003f003700881f7800030478000300e0008f
:100a700007003d0060001000e080180060011900d0
:100a8000e081190002003b0001f02d000300370057
:100a90000400070008f0a70001f0a0004f04780050
:100aa00000000600889fbe008a9fbe000082700082
:100ab0000402710004827100260032000004be00ae
:100ac0000200be006011b8006b09200095022000f2
:100ad0000182cf000a0039000541b1000082cf0039
:100ae000070039000541b1000982cf000400390038
:100af0000541b1000882cf00010039000541b10075
:100b000005425200120032000a003b00828171004f
:100b1000610164008100d1000080d3008984d3008a
:100b20000884d3008b05e8000442e800f7ff3a0090
:100b3000070037000804440089844c000000480086
:100b4000818048008b05e9000442e900f9ff3a0082
:100b50003bff07004f05be004f04be00000006002b
:100b6000889fbe008a9fbe008c9fbe0082057800d1
:100b70000004be0058ff07000800be006420e1002a
:100b80000700390002003a00f1ff2700f0ff2f00b4
:100b90000160a00012022000a24c8800550037001e
:100ba0006120e10003003a000b00a70001f82300d8
:100bb0005000370001f0a1000200210093642400de
:100bc000500007000800be0004003500b2fd200000
:100bd000930c24004d0007000004be000005eb004c
:100be0000b00a6004f0dde0001f0a1000004be00c6
:100bf00032982f0023ea230064ff07000001eb0076
:100c000003f023000b00a70003f8230049fe0700b0
:100c1000e7fe07000000a7000a00a20005ff07008a
:100c20000b00e000030032000200200003f023006c
:100c30003ffe070001f0a2000006be0002002000f7
:100c40009304240051ff07000801be0039fe07008d
:100c5000809fbe000c00be0022a22a00d3a7230062
:100c60004aff07004f01be0032fe07000004be002d
:100c700001f0a100020020000398230021000700da
:100c80000800be00190035000001be003fff07004c
:100c90000006be00b2c52900e36223003bff070047
:100ca00022222b00f3942b0022fe07000c01be0031
:100cb00036ff0700e273280083c023001dfe0700f3
:100cc0000c01be0031ff070042aa2a00a3e22b005c
:100cd00018fe07000c01be002cff07000801be0033
:100ce0002aff07000801be0012fe07000a00a70045
:100cf00001f0a2004f06be004f05be004f04be002b
:100d000000000600140020005100370004002000fd
:100d100000003700889fbe008a9fbe008c1f7800ad
:100d20004f26dd0001ff070008ff33006120e100ce
:100d3000430032006250e10041003e003e003900b5
:100d40006420e1003c003200058255000f003b00aa
:100d50000402e80038003a00800f5300818f5b00e6
:100d6000350034000800be0003f0a10001f0a60029
:100d700003f0a0000cf0a700eefd0700fcfe37001a
:100d80000603430087834b000c46460000055300d2
:100d900081855b00020033000a03be000c00a00046
:100da0000402e900f6ff3b008505780006024300d7
:100db00087824b0004003a006000b80009f0a700e9
:100dc00001f0a000eafe37000002520081825a00c2
:100dd0000704e000040033000603430087834b0050
:100de0008b05e900faff3700090578000604be000c
:100df0000203be006011b80091fe0700e00f520030
:100e0000e08f5a000700350002003c000c08a300e8
:100e1000040032000601be0003f0a0000cf0a700a1
:100e2000c4fd07000a85680001f0a1000af0a700d0
:100e300001f0a000cefe37000800be00ccfe370057
:100e4000100220000cf0a600a04c8800ccfe370059
:100e5000889fbe008a9fbe00841f7800b3fe0700f3
:100e60004f00780011003300f0ff2f00838f6c00db
:100e700006003b00040565000a00a70008003700d3
:100e800009f0a6001000200008003700820f54006f
:100e9000838f5c00030039001000200001003e0039
:100ea0000000200009f0a7000000ea004f05be0086
:0c0eb0004f04be000000e000000006003f
:020000040000fa
:100ebc000200fa00004f780095168000f4fc2f0019
:100ecc000482620094168800e516800004f02f005e
:100edc0004826200e41688009e02fb00e416800087
:100eec0004827200e4168800d6a2a900cbe2a90005
:100efc00d682a800000000000000000000000000e6
:100f0c0000000000d682a90000d42000310020008f
:100f1c00480207000080fa00000006000000fa00fa
:100f2c00007c22009100200042020700e5168000a0
:100f3c0004f02f0004826200e4168800d6a2a900f7
:100f4c00cbe2a900d682a900c516800004f02f00c0
:100f5c0004826200c4168800d2a2a900c7e2a900cc
:100f6c00d282a900e516800004f02f0004826200f2
:100f7c00e4168800e51680008403200004827200c9
:100f8c00e4168800d682a8000000000000000000d3
:100f9c000000000000000000d682a90000d4200050
:100fac003100200023020700e516800004f02f001a
:100fbc0004826200e4168800e51680008403200099
:100fcc0004827200e4168800d682a800000000009b
:100fdc00000000000000000000000000d682a90004
:100fec0000f421000100200012020700e516800029
:100ffc0004f02f0004826200e4168800e5168000dd
:10100c008403200004827200e4168800d682a800b3
:10101c0000000000000000000000000000000000c4
:10102c00d682a90000f42100010020000102070073
:10103c0080c3b3009eff0700c0c0b3009cff070035
:10104c0060c0b3009aff070010c0b30098ff070000
:10105c000080fa00000006000200fa00004f780041
:10106c0095168000f4fc2f00048262009416880010
:10107c00d6a2a900cbe2a800e516800004f02f0050
:10108c0004826200e41688009e02fb00e4168000d5
:10109c0004827200e4168800d682a80000000000ca
:1010ac00000000000000000000000000d682a90033
:1010bc00cbe2a90000e8230001002000dd010700bd
:1010cc000080fa00000006000200fa00000f780011
:1010dc00050037001e0278001442780004407800a6
:1010ec00ddff07001e0fe8001e0278001442780096
:1010fc00e04f5200f7ff3a000080fa0000000600b3
:10110c000200fa00004f780004c8b3001e427200bf
:10111c000440780066ff07000080fa00000006001b
:10112c000000fa0000c1b30061ff07000080fa0064
:10113c00000006000000fa0010c0b3005cff0700be
:10114c000080fa00000006000000fa0020c0b30086
:10115c0057ff07000080fa00000006000000fa00ac
:10116c0000ccb30052ff07000080fa00000006001c
:10117c000200fa00004f78001e42780063426200c1
:10118c00c440b3000440780049ff07000080fa0017
:10119c00000006000200fa00004f78001e427800a2
:1011ac00e04f520003003200c0c1b30040ff070003
:1011bc000200370080c1b3003dff07000080fa0039
:1011cc00000006000000fa0095168000f40f2f00b6
:1011dc0004826200941688000080fa000000060069
:1011ec000000fa00d702a800d722a900d742a90014
:1011fc00d762a900803e2000010020008d0107006d
:10120c00451680000410200004826200e00f52009a
:10121c000200320014c3b3007f0037004516800073
:10122c000420200004826200e00f52000200320011
:10123c0044c3b300780037004516800004402000fa
:10124c0004826200e00f52000200320074c3b3004b
:10125c007100370045168000048020000482620073
:10126c00e00f52000200320014c4b3006a003700d1
:10127c00d702a900d722a800d742a900d762a9009b
:10128c00803e2000010020006a0107004516800006
:10129c000410200004826200e00f520002003200b1
:1012ac0024c3b3005c0037004516800004202000e6
:1012bc0004826200e00f52000200320054c3b300fb
:1012cc00550037004516800004402000048262005f
:1012dc00e00f52000200320084c3b3004e0037000e
:1012ec00451680000480200004826200e00f52004a
:1012fc000200320024c4b30047003700d702a90013
:10130c00d722a900d742a800d762a900803e2000ae
:10131c000100200047010700451680000410200042
:10132c0004826200e00f52000200320034c3b300aa
:10133c00390037004516800004202000048262002a
:10134c00e00f52000200320064c3b30032003700d9
:10135c00451680000440200004826200e00f520019
:10136c000200320094c3b3002b00370045168000f6
:10137c000480200004826200e00f52000200320060
:10138c0034c4b30024003700d702a900d722a90027
:10139c00d742a900d762a800803e2000010020009f
:1013ac00240107004516800004102000048262000e
:1013bc00e00f52000200320064c4b3001600370084
:1013cc00451680000420200004826200e00f5200c9
:1013dc000200320054c4b3000f00370045168000e1
:1013ec000440200004826200e00f52000200320030
:1013fc0044c4b30008003700451680000480200068
:10140c0004826200e00f52000200320034c4b300c8
:10141c0001003700a4c7b300044078000080fa0034
:10142c00000006000200fa006dff07000042780081
:10143c00044f780024992000144278009e427800d2
:10144c0084cf520008003200a4c7b3009e4278003b
:10145c0084cf5200040032001e407800fefe0700cc
:10146c001e40780092e9b7000080fa0000000600e8
:10147c000400fa00cd000700a8fe07007e0007005c
:10148c00a40007000002eb00040f78000002eb0040
:10149c00040f78001e0037001e0278000402420080
:1014ac00cfa2de000400be00dffc07000002be007d
:1014bc0062e52000930424000400be0030fd070008
:1014cc000002be0002002000832c24000400be0099
:1014dc0072fc07000002be000400be005cfd0700a9
:1014ec000002be0002002000a34f24000400be0036
:1014fc0023fd07000002be001e037800c233dd008e
:10150c000680200006834300048bbe001e0fe800fb
:10151c00340620009e027800848f5200deff3400d7
:10152c0004c4290014088800240880000440a10089
:10153c000450a1002408880005e1a800047d2000c7
:10154c0064088800840880000440a1000450a100b5
:10155c008408880094e0a80011e1a800051680001a
:10156c0004f02f000482620004168800010037008a
:10157c00000000002404800068026200e00f5200aa
:10158c00fbff32008460a9004b0007000000000044
:10159c004d00070000027800e00f5200fcff320003
:1015ac005100070000027800140798009e0290007a
:1015bc00f4072000110009008402d8000002780012
:1015cc0015002000042add000402e900241688001e
:1015dc00e8ff37003600f800809fbe00829fbe00f7
:1015ec00849fbe00869fbe003400f80000002000df
:1015fc00a00188000000fa0084e0a900844c80005f
:10160c000402e800844c8800854c800044062000cd
:10161c00110009008482d80001027800c222dd008a
:10162c0004802000048242001402be00020020004c
:10163c00035024000400be00bbfb07000002be00e8
:10164c000400be0057fc07000002be000402780034
:10165c0004007800420007000080fa003400f90012
:10166c004f03be004f02be004f01be004f00be0034
:10167c003600f900004006000000fa002143a900e2
:10168c0054c0b3000440780024e3b7002043a80002
:10169c003003a8002c03a900041980000450a100f9
:1016ac000460a1000470a1000419880021e3a800c3
:1016bc000080fa00000006000000fa002023a900b8
:1016cc000080fa00000006000000fa0004198000f7
:1016dc0004427800614262000482fb00040078003e
:1016ec000080fa00000006000000fa0004198000d7
:1016fc0061026200e00f5200020032000418800008
:10170c000100370004002800040078000080fa0073
:10171c00000006000000fa00c642a900ca42a80058
:10172c004342a800141280000400a0000410a10081
:10173c0014128800141280000420a0000430a000b1
:10174c000440a0001412880042a2a80042c2a800c3
:10175c004302a90041e2a8000080fa000000060044
:10176c000200fa00000f78008540a900ca42a900c7
:10177c00f4ff20009e026200040023000482720029
:10178c004412880000000000250480000440200062
:10179c0004826200e00f5200fbff3200ca42a80034
:1017ac00441280000080fa00000006000000fa00dd
:1017bc0064022000343a8800243a80000460a100be
:1017cc000470a100243a8800253a800004fe2f0002
:1017dc0004826200243a880036002000840720002e
:1017ec00a509200037742000844b7800854b7800c5
:1017fc00864b78001600200064042000750520003c
:10180c0027742000844b7800854b7800864b780039
:10181c0000000000153a800004002700848262005a
:10182c0004002300848f5200faff3a000080fa0073
:04183c0000000600a2
:020000040000fa
:10184000f03fb1000180b10006003500ee03090051
:1018500000000000403fb1000180b100fbff3d00ef
:101860001000b000203fb0000200350000800900e9
:0818700000000000000006006a
:020000040000fa
:10187800000800009201000000000000920900002a
:1018880002000000020000007a0000009409000035
:0c18980002000000000000000000000042
:020000040000fa
:0200000401f009
:04000c00f8ff0000f9
:020000040000fa
:0200000401f009
:040010007dff000070
:020000040000fa
:0200000401f009
:040014007fff00006a
:020000040000fa
:0200000401f009
:04001c00dfff000002
:00000001FF
