:020000040000fa
:080000000002040000000000f2
:020000040000fa
:04000800c80200002a
:020000040000fa
:04000c00c802000026
:020000040000fa
:04001000c802000022
:020000040000fa
:04001400c80200001e
:020000040000fa
:04001800c80200001a
:020000040000fa
:04001c00c802000016
:020000040000fa
:04002000c802000012
:020000040000fa
:04002400c80200000e
:020000040000fa
:04002800c80200000a
:020000040000fa
:04002c00c802000006
:020000040000fa
:04003000c802000002
:020000040000fa
:04003400c8020000fe
:020000040000fa
:04003800c8020000fa
:020000040000fa
:04003c00c8020000f6
:020000040000fa
:04004000c8020000f2
:020000040000fa
:04004400c8020000ee
:020000040000fa
:04004800c8020000ea
:020000040000fa
:04004c00c8020000e6
:020000040000fa
:04005000c8020000e2
:020000040000fa
:04005400c8020000de
:020000040000fa
:04005800c8020000da
:020000040000fa
:04005c00c8020000d6
:020000040000fa
:04006000c8020000d2
:020000040000fa
:04006400c8020000ce
:020000040000fa
:04006800c8020000ca
:020000040000fa
:04006c00c8020000c6
:020000040000fa
:04007000c8020000c2
:020000040000fa
:04007400c8020000be
:020000040000fa
:04007800c8020000ba
:020000040000fa
:04007c00c8020000b6
:020000040000fa
:04008000c8020000b2
:020000040000fa
:04008400c8020000ae
:020000040000fa
:04008800c8020000aa
:020000040000fa
:04008c00c8020000a6
:020000040000fa
:04009000c8020000a2
:020000040000fa
:04009400c80200009e
:020000040000fa
:04009800c80200009a
:020000040000fa
:04009c00c802000096
:020000040000fa
:0400a000c802000092
:020000040000fa
:0400a400c80200008e
:020000040000fa
:0400a800c80200008a
:020000040000fa
:0400ac00c802000086
:020000040000fa
:0400b000c802000082
:020000040000fa
:0400b400c80200007e
:020000040000fa
:0400b800c80200007a
:020000040000fa
:0400bc00c802000076
:020000040000fa
:0400c000c802000072
:020000040000fa
:0400c400c80200006e
:020000040000fa
:0400c800c80200006a
:020000040000fa
:0400cc00c802000066
:020000040000fa
:0400d000c802000062
:020000040000fa
:0400d400c80200005e
:020000040000fa
:0400d800c80200005a
:020000040000fa
:0400dc00c802000056
:020000040000fa
:0400e000c802000052
:020000040000fa
:0400e400c80200004e
:020000040000fa
:0400e800c80200004a
:020000040000fa
:0400ec00c802000046
:020000040000fa
:0400f000c802000042
:020000040000fa
:0400f400c80200003e
:020000040000fa
:0400f800c80200003a
:020000040000fa
:0400fc00c802000036
:020000040000fa
:04010000c802000031
:020000040000fa
:04010400c80200002d
:020000040000fa
:04010800c802000029
:020000040000fa
:04010c00c802000025
:020000040000fa
:04011000c802000021
:020000040000fa
:04011400c80200001d
:020000040000fa
:04011800c802000019
:020000040000fa
:04011c00c802000015
:020000040000fa
:04012000c802000011
:020000040000fa
:04012400c80200000d
:020000040000fa
:04012800c802000009
:020000040000fa
:04012c00c802000005
:020000040000fa
:04013000c802000001
:020000040000fa
:04013400c8020000fd
:020000040000fa
:04013800c8020000f9
:020000040000fa
:04013c00c8020000f5
:020000040000fa
:04014000c8020000f1
:020000040000fa
:04014400c8020000ed
:020000040000fa
:04020800c802000028
:020000040000fa
:04020c00c802000024
:020000040000fa
:04021000c802000020
:020000040000fa
:04021400c80200001c
:020000040000fa
:04021800c802000018
:020000040000fa
:04021c00c802000014
:020000040000fa
:04022000c802000010
:020000040000fa
:04022400c80200000c
:020000040000fa
:04022800c802000008
:020000040000fa
:04022c00c802000004
:020000040000fa
:04023000c802000000
:020000040000fa
:04023400c8020000fc
:020000040000fa
:04023800c8020000f8
:020000040000fa
:04023c00c8020000f4
:020000040000fa
:04024000c8020000f0
:020000040000fa
:04024400c8020000ec
:020000040000fa
:04024800c8020000e8
:020000040000fa
:04024c00c8020000e4
:020000040000fa
:04025000c8020000e0
:020000040000fa
:04025400c8020000dc
:020000040000fa
:04025800c8020000d8
:020000040000fa
:04025c00c8020000d4
:020000040000fa
:04026000c8020000d0
:020000040000fa
:04026400c8020000cc
:020000040000fa
:04026800c8020000c8
:020000040000fa
:04026c00c8020000c4
:020000040000fa
:04027000c8020000c0
:020000040000fa
:04027400c8020000bc
:020000040000fa
:04027800c8020000b8
:020000040000fa
:04027c00c8020000b4
:020000040000fa
:04028000c8020000b0
:020000040000fa
:04028400c8020000ac
:020000040000fa
:04028800c8020000a8
:020000040000fa
:04028c00c8020000a4
:020000040000fa
:04029000c8020000a0
:020000040000fa
:04029400c80200009c
:020000040000fa
:04029800c802000098
:020000040000fa
:04029c00c802000094
:020000040000fa
:0402a000c802000090
:020000040000fa
:0402a400c80200008c
:020000040000fa
:0402a800c802000088
:020000040000fa
:0402ac00c802000084
:020000040000fa
:0402b000c802000080
:020000040000fa
:0402b400c80200007c
:020000040000fa
:0402b800c802000078
:020000040000fa
:0402bc00c802000074
:020000040000fa
:0402c000c802000070
:020000040000fa
:0402c400c80200006c
:020000040000fa
:0402c800c802000068
:020000040000fa
:0402cc00c802000064
:020000040000fa
:0402d000c802000060
:020000040000fa
:0402d400c80200005c
:020000040000fa
:0402d800c802000058
:020000040000fa
:0402dc00c802000054
:020000040000fa
:0402e000c802000050
:020000040000fa
:0402e400c80200004c
:020000040000fa
:0402e800c802000048
:020000040000fa
:0402ec00c802000044
:020000040000fa
:0402f000c802000040
:020000040000fa
:0402f400c80200003c
:020000040000fa
:0402f800c802000038
:020000040000fa
:0402fc00c802000034
:020000040000fa
:04030000c80200002f
:020000040000fa
:04030400c80200002b
:020000040000fa
:04030800c802000027
:020000040000fa
:04030c00c802000023
:020000040000fa
:04031000c80200001f
:020000040000fa
:04031400c80200001b
:020000040000fa
:04031800c802000017
:020000040000fa
:04031c00c802000013
:020000040000fa
:04032000c80200000f
:020000040000fa
:04032400c80200000b
:020000040000fa
:04032800c802000007
:020000040000fa
:04032c00c802000003
:020000040000fa
:04033000c8020000ff
:020000040000fa
:04033400c8020000fb
:020000040000fa
:04033800c8020000f7
:020000040000fa
:04033c00c8020000f3
:020000040000fa
:04034000c8020000ef
:020000040000fa
:04034400c8020000eb
:020000040000fa
:100400000f8020000eff27000e0188000000000072
:10041000000020000000e000020032000001200087
:1004200020028800140007005b0007000000e000c5
:1004300003003a0000002000010020000200370005
:100440000000200001002000810f70000100320038
:1004500014000700000020000000e000020032004d
:1004600000000200000000008606020000000000fc
:100470000040da000000fe004440a9000000200017
:100480000000e0000300320000002000a00188000e
:100490004440a800000006008a1f78008b1f7800e7
:1004a0000000060091018800800478000000eb0045
:1004b0001a003700e284440032a0b4009905ba0063
:1004c000e284440032a0b4009906ba00e2844400f9
:1004d00032a0b4000006eb00476fde00fd07b2005b
:1004e000636ce10003003a00ebff07000000eb0043
:1004f0000a003700606ce10004003a00005deb0088
:100500008b05e900fdff3e00040037006168e10053
:10051000010032000086eb000b00070019c7ba008b
:100520001905ba000e04e00003003a000a00e000da
:10053000e0ff3a0000000600fe07b2009e018800be
:100540008a047800f5ff3700395dba008b05e900b1
:100550000c003200295dba008b05e900080032006a
:100560000c00e00003003a00e284440032a0b40032
:10057000f5ff370019ddba008b05e900faff3a00f4
:100580008904e800e184440032a0b40000000600c1
:0c0590000040da000000fe000000050042
:020000040000fa
:10059c000200fa00004f780091168000f0fc2f004a
:1005ac000080600090168800e116800000f02f009b
:1005bc0000806000e01688009e00fb00e0168000c2
:1005cc0001007000e0168800d6a2a900cbe2a900b9
:1005dc00d682a8000000000000000000000000000f
:1005ec0000000000d682a90000d4200031002000b9
:1005fc00b50107000080fa00000006000000fa00b8
:10060c00007c220091002000af010700e116800061
:10061c0000f02f0000806000e0168800d6a2a90030
:10062c00cbe2a900d682a900c116800000f02f00f1
:10063c0000806000c0168800d2a2a900c7e2a90001
:10064c00d282a900e116800000f02f00008060002b
:10065c00e0168800e1168000800320000100700085
:10066c00e0168800d682a800000000000000000000
:10067c000000000000000000d682a90000d4200079
:10068c003100200090010700e116800000f02f00df
:10069c0000806000e0168800e116800080032000d6
:1006ac0001007000e0168800d682a800000000004f
:1006bc00000000000000000000000000d682a9002d
:1006cc0000f42100010020007f010700e1168000ea
:1006dc0000f02f0000806000e0168800e11680001a
:1006ec008003200001007000e0168800d682a8006c
:1006fc0000000000000000000000000000000000ee
:10070c00d682a90000f42100010020006e01070030
:10071c0080c3b3009eff0700c0c0b3009cff07005e
:10072c0060c0b3009aff070010c0b30098ff070029
:10073c000080fa00000006000200fa00004f78006a
:10074c0091168000f0fc2f0000806000901688004d
:10075c00d6a2a900cbe2a800e116800000f02f0081
:10076c0000806000e01688009e00fb00e016800010
:10077c0001007000e0168800d682a800000000007e
:10078c00000000000000000000000000d682a9005c
:10079c00cbe2a90000e82300010020004a01070079
:1007ac000080fa00000006000200fa00000f78003a
:1007bc00040037001e00780010407800deff0700b0
:1007cc001e0fe8001e007800104078000004e000c6
:1007dc00f8ff3a000080fa00000006000200fa0060
:1007ec00004f78001e4078000074a00068ff0700de
:1007fc000080fa00000006000000fa0000c1b300ff
:10080c0063ff07000080fa00000006000000fa00f9
:10081c0010c0b3005eff07000080fa000000060065
:10082c000000fa0020c0b30059ff07000080fa0056
:10083c00000006000000fa0000ccb30054ff0700d3
:10084c000080fa00000006000200fa00004f780059
:10085c001e40780063406000c040b3004cff0700ae
:10086c000080fa00000006000200fa00004f780039
:10087c001e4078000004e00003003200c0c1b30049
:10088c0043ff07000200370080c1b30040ff0700a0
:10089c000080fa00000006000000fa0091168000ab
:1008ac00f00f2f0000806000901688000080fa0086
:1008bc00000006000000fa00d702a800d722a90009
:1008cc00d742a900d762a900803e20000100200079
:1008dc00fd00070041168000001020000080600021
:1008ec000000e0000200320010c3b3007f003700ac
:1008fc004116800000202000008060000000e00015
:10090c000200320040c3b30078003700411680006b
:10091c0000402000008060000000e0000200320077
:10092c0070c3b300710037004116800000802000b6
:10093c00008060000000e0000200320010c4b30030
:10094c006a003700d702a900d722a800d742a90015
:10095c00d762a900803e200001002000da000700c9
:10096c004116800000102000008060000000e000b4
:10097c000200320020c3b3005c0037004116800037
:10098c0000202000008060000000e0000200320027
:10099c0050c3b300550037004116800000402000c2
:1009ac00008060000000e0000200320080c3b30051
:1009bc004e0037004116800000802000008060004f
:1009cc000000e0000200320020c4b30047003700f2
:1009dc00d702a900d722a900d742a800d762a90044
:1009ec00803e200001002000b70007004116800067
:1009fc0000102000008060000000e00002003200c7
:100a0c0030c3b300390037004116800000202000ad
:100a1c00008060000000e0000200320060c3b30000
:100a2c00320037004116800000402000008060003a
:100a3c000000e0000200320090c3b3002b0037002e
:100a4c004116800000802000008060000000e00063
:100a5c000200320030c4b30024003700d702a900d2
:100a6c00d722a900d742a900d762a800803e200057
:100a7c0001002000940007004116800000102000a7
:100a8c00008060000000e0000200320060c4b3008f
:100a9c001600370041168000002020000080600006
:100aac000000e0000200320050c4b3000f00370019
:100abc004116800000402000008060000000e00033
:100acc000200320040c4b300080037004116800019
:100adc0000802000008060000000e0000200320076
:100aec0030c4b30001003700a0c7b3000080fa0087
:100afc00000006000000fa00c642a900ca42a80085
:100b0c004342a80011128000c0ff2f00008060003b
:100b1c000000a0001012880010128000c001b30069
:100b2c001012880042a2a80042c2a8004302a900e9
:100b3c0041e2a8000080fa00000006000200fa0062
:100b4c00000f7800f0ff20009e007800808f50008e
:100b5c0003003400f0ff2000000f78000500370080
:100b6c001e0078000000e00002003d000000eb00d9
:100b7c00000f78008540a900ca42a900000023009c
:100b8c001e0070004012880000000000210480004c
:100b9c0000402000008060000000e000fbff3200fd
:100bac00ca42a800401280000080fa000000060033
:100bbc000000fa002143a90050c0b30024e3b700a1
:100bcc002043a8003003a8002c03a90001198000c1
:100bdc00f0f12f00008060000019880021e3a800cc
:100bec000080fa00000006000000fa002023a90093
:100bfc000080fa00000006000000fa0000198000d6
:100c0c0000407800614060000080fb000080fa002a
:100c1c00000006000000fa0000198000610060006e
:100c2c000000e000030032002003a900001880003f
:100c3c0001003700000028000080fa0000000600c8
:100c4c000000fa0060022000303a8800213a80004f
:100c5c00f0f32f0000806000203a8800213a8000d9
:100c6c0000fe2f0000806000203a88003200200037
:100c7c0080072000a10920003374200080497800ef
:100c8c00814978008249780012002000600420001d
:100c9c007105200023742000804978008149780078
:100cac008249780000000000113a80000000270003
:100cbc008080600000002300808f5000faff3a0013
:080ccc000080fa0000000600a0
:020000040000fa
:100cd400f03fb1000180b10006003500ee030900c9
:100ce40000000000403fb1000180b100fbff3d0067
:100cf4001000b000203fb000020035000080090061
:080d04000000000000000600e1
:020000040000fa
:100d0c000000fa00ceff0700d2e2a800c002a90042
:100d1c00a116800000082000008060000000e000a8
:100d2c0002003a00c402a800f9ff3700c402a9006f
:040d3c00f7ff370086
:020000040000fa
:0200000401f009
:04000c00f8ff0000f9
:020000040000fa
:0200000401f009
:040010007dff000070
:020000040000fa
:0200000401f009
:040014007fff00006a
:020000040000fa
:0200000401f009
:04001c00dfff000002
:00000001FF
