:020000040000fa
:080000000002040000000000f2
:020000040000fa
:100008009a0200009a0200009a0200009a02000078
:100018009a0200009a0200009a0200009a02000068
:100028009a0200009a0200009a0200009a02000058
:100038009a0200009a0200009a0200009a02000048
:020000040000fa
:020000040000fa
:100400000f8020000e7f24000e01880000000000f5
:10041000000020000000e000020032000001200087
:10042000200288000c00070020332000010020007b
:1004300011000700000020000000e0000200320070
:1004400000000200000000002c0302000000000079
:100450000040da000000fe004440a9000000200037
:100460000000e0000300320000002000a00188002e
:100470004440a80000000600910188008000780038
:100480000000eb0015003700e280400032a0b4000d
:100490009101ba00e280400032a0b4009102ba009b
:1004a000e280400032a0b4000002eb00472bde00e7
:1004b000f507b200602ce10004003a000059eb009f
:1004c0008301e900fdff3e00040037006128e100e0
:1004d000010032000082eb00040007001101ba00a5
:1004e0000200e000e8ff3a00000006003159ba00bf
:1004f0008301e9000c0032002159ba008301e900b0
:10050000080032000400e00003003a00e2804000ee
:1005100032a0b400f5ff370011d9ba008301e90019
:10052000faff3a008100e800e180400032a0b40008
:0c053000000006000040da000000fe00a1
:020000040000fa
:10053c000000fa002143a90050c0b30024e3b70027
:10054c002043a8003003a8002c03a9000019800048
:10055c000050a1000060a0000070a10000198800ec
:10056c0021e3a8000080fa00000006000000fa0059
:10057c002023a9000080fa00000006000000fa0009
:10058c000019800000407800614060000080fb0092
:10059c000080fa00000006000000fa00001980003c
:1005ac00610060000000e000030032002003a9009d
:1005bc000018800001003700000028000080fa00bd
:1005cc00000006000000fa00e0012000303a88002c
:1005dc00203a80000060a1000070a100203a880041
:1005ec00213a800000fe2f0000806000203a880035
:1005fc003200200080072000a10920003374200065
:10060c0080497800814978008249780012002000e6
:10061c0060042000710520002374200080497800bc
:10062c00814978008249780000000000113a80006e
:10063c00000027008080600000002300808f5000a5
:10064c00faff3a000080fa00000006000000fa00f1
:08065c00dcff0700ffff37007f
:020000040000fa
:040664000000000092
:020000040000fa
:0200000401f009
:04000c00f8ff0000f9
:020000040000fa
:0200000401f009
:040010007dff000070
:020000040000fa
:0200000401f009
:040014007fff00006a
:020000040000fa
:0200000401f009
:04001c00dfff000002
:00000001FF
