:020000040000fa
:080000000002040000000000f2
:020000040000fa
:04000800c80200002a
:020000040000fa
:04000c00c802000026
:020000040000fa
:04001000c802000022
:020000040000fa
:04001400c80200001e
:020000040000fa
:04001800c80200001a
:020000040000fa
:04001c00c802000016
:020000040000fa
:04002000c802000012
:020000040000fa
:04002400c80200000e
:020000040000fa
:04002800c80200000a
:020000040000fa
:04002c00c802000006
:020000040000fa
:04003000c802000002
:020000040000fa
:04003400c8020000fe
:020000040000fa
:04003800c8020000fa
:020000040000fa
:04003c00c8020000f6
:020000040000fa
:04004000c8020000f2
:020000040000fa
:04004400c8020000ee
:020000040000fa
:04004800c8020000ea
:020000040000fa
:04004c00c8020000e6
:020000040000fa
:04005000c8020000e2
:020000040000fa
:04005400c8020000de
:020000040000fa
:04005800c8020000da
:020000040000fa
:04005c00c8020000d6
:020000040000fa
:04006000c8020000d2
:020000040000fa
:04006400c8020000ce
:020000040000fa
:04006800c8020000ca
:020000040000fa
:04006c00c8020000c6
:020000040000fa
:04007000c8020000c2
:020000040000fa
:04007400c8020000be
:020000040000fa
:04007800c8020000ba
:020000040000fa
:04007c00c8020000b6
:020000040000fa
:04008000c8020000b2
:020000040000fa
:04008400c8020000ae
:020000040000fa
:04008800c8020000aa
:020000040000fa
:04008c00c8020000a6
:020000040000fa
:04009000c8020000a2
:020000040000fa
:04009400c80200009e
:020000040000fa
:04009800c80200009a
:020000040000fa
:04009c00c802000096
:020000040000fa
:0400a000c802000092
:020000040000fa
:0400a400c80200008e
:020000040000fa
:0400a800c80200008a
:020000040000fa
:0400ac00c802000086
:020000040000fa
:0400b000c802000082
:020000040000fa
:0400b400c80200007e
:020000040000fa
:0400b800c80200007a
:020000040000fa
:0400bc00c802000076
:020000040000fa
:0400c000c802000072
:020000040000fa
:0400c400c80200006e
:020000040000fa
:0400c800c80200006a
:020000040000fa
:0400cc00c802000066
:020000040000fa
:0400d000c802000062
:020000040000fa
:0400d400c80200005e
:020000040000fa
:0400d800c80200005a
:020000040000fa
:0400dc00c802000056
:020000040000fa
:0400e000c802000052
:020000040000fa
:0400e400c80200004e
:020000040000fa
:0400e800c80200004a
:020000040000fa
:0400ec00c802000046
:020000040000fa
:0400f000c802000042
:020000040000fa
:0400f400c80200003e
:020000040000fa
:0400f800c80200003a
:020000040000fa
:0400fc00c802000036
:020000040000fa
:04010000c802000031
:020000040000fa
:04010400c80200002d
:020000040000fa
:04010800c802000029
:020000040000fa
:04010c00c802000025
:020000040000fa
:04011000c802000021
:020000040000fa
:04011400c80200001d
:020000040000fa
:04011800c802000019
:020000040000fa
:04011c00c802000015
:020000040000fa
:04012000c802000011
:020000040000fa
:04012400c80200000d
:020000040000fa
:04012800c802000009
:020000040000fa
:04012c00c802000005
:020000040000fa
:04013000c802000001
:020000040000fa
:04013400c8020000fd
:020000040000fa
:04013800c8020000f9
:020000040000fa
:04013c00c8020000f5
:020000040000fa
:04014000c8020000f1
:020000040000fa
:04014400c8020000ed
:020000040000fa
:04014800c8020000e9
:020000040000fa
:04014c00c8020000e5
:020000040000fa
:04015000c8020000e1
:020000040000fa
:04015400c8020000dd
:020000040000fa
:04015800c8020000d9
:020000040000fa
:04015c00c8020000d5
:020000040000fa
:04016000c8020000d1
:020000040000fa
:04016400c8020000cd
:020000040000fa
:04020800c802000028
:020000040000fa
:04020c00c802000024
:020000040000fa
:04021000c802000020
:020000040000fa
:04021400c80200001c
:020000040000fa
:04021800c802000018
:020000040000fa
:04021c00c802000014
:020000040000fa
:04022000c802000010
:020000040000fa
:04022400c80200000c
:020000040000fa
:04022800c802000008
:020000040000fa
:04022c00c802000004
:020000040000fa
:04023000c802000000
:020000040000fa
:04023400c8020000fc
:020000040000fa
:04023800c8020000f8
:020000040000fa
:04023c00c8020000f4
:020000040000fa
:04024000c8020000f0
:020000040000fa
:04024400c8020000ec
:020000040000fa
:04024800c8020000e8
:020000040000fa
:04024c00c8020000e4
:020000040000fa
:04025000c8020000e0
:020000040000fa
:04025400c8020000dc
:020000040000fa
:04025800c8020000d8
:020000040000fa
:04025c00c8020000d4
:020000040000fa
:04026000c8020000d0
:020000040000fa
:04026400c8020000cc
:020000040000fa
:04026800c8020000c8
:020000040000fa
:04026c00c8020000c4
:020000040000fa
:04027000c8020000c0
:020000040000fa
:04027400c8020000bc
:020000040000fa
:04027800c8020000b8
:020000040000fa
:04027c00c8020000b4
:020000040000fa
:04028000c8020000b0
:020000040000fa
:04028400c8020000ac
:020000040000fa
:04028800c8020000a8
:020000040000fa
:04028c00c8020000a4
:020000040000fa
:04029000c8020000a0
:020000040000fa
:04029400c80200009c
:020000040000fa
:04029800c802000098
:020000040000fa
:04029c00c802000094
:020000040000fa
:0402a000c802000090
:020000040000fa
:0402a400c80200008c
:020000040000fa
:0402a800c802000088
:020000040000fa
:0402ac00c802000084
:020000040000fa
:0402b000c802000080
:020000040000fa
:0402b400c80200007c
:020000040000fa
:0402b800c802000078
:020000040000fa
:0402bc00c802000074
:020000040000fa
:0402c000c802000070
:020000040000fa
:0402c400c80200006c
:020000040000fa
:0402c800c802000068
:020000040000fa
:0402cc00c802000064
:020000040000fa
:0402d000c802000060
:020000040000fa
:0402d400c80200005c
:020000040000fa
:0402d800c802000058
:020000040000fa
:0402dc00c802000054
:020000040000fa
:0402e000c802000050
:020000040000fa
:0402e400c80200004c
:020000040000fa
:0402e800c802000048
:020000040000fa
:0402ec00c802000044
:020000040000fa
:0402f000c802000040
:020000040000fa
:0402f400c80200003c
:020000040000fa
:0402f800c802000038
:020000040000fa
:0402fc00c802000034
:020000040000fa
:04030000c80200002f
:020000040000fa
:04030400c80200002b
:020000040000fa
:04030800c802000027
:020000040000fa
:04030c00c802000023
:020000040000fa
:04031000c80200001f
:020000040000fa
:04031400c80200001b
:020000040000fa
:04031800c802000017
:020000040000fa
:04031c00c802000013
:020000040000fa
:04032000c80200000f
:020000040000fa
:04032400c80200000b
:020000040000fa
:04032800c802000007
:020000040000fa
:04032c00c802000003
:020000040000fa
:04033000c8020000ff
:020000040000fa
:04033400c8020000fb
:020000040000fa
:04033800c8020000f7
:020000040000fa
:04033c00c8020000f3
:020000040000fa
:04034000c8020000ef
:020000040000fa
:04034400c8020000eb
:020000040000fa
:04034800c8020000e7
:020000040000fa
:04034c00c8020000e3
:020000040000fa
:04035000c8020000df
:020000040000fa
:04035400c8020000db
:020000040000fa
:04035800c8020000d7
:020000040000fa
:04035c00c8020000d3
:020000040000fa
:04036000c8020000cf
:020000040000fa
:04036400c8020000cb
:020000040000fa
:100400000f8020000e7f24000e01880000000000f5
:10041000000020000000e000020032000001200087
:1004200020028800140007005b0007000000e000c5
:1004300003003a0000002000010020000200370005
:100440000000200001002000810f70000100320038
:1004500014000700000020000000e000020032004d
:100460000000020000000000ba06020000000000c8
:100470000040da000000fe004440a9000000200017
:100480000000e0000300320000002000a00188000e
:100490004440a800000006008a1f78008b1f7800e7
:1004a0000000060091018800800478000000eb0045
:1004b0001a003700e284440032a0b4009905ba0063
:1004c000e284440032a0b4009906ba00e2844400f9
:1004d00032a0b4000006eb00476fde00fd07b2005b
:1004e000636ce10003003a00ebff07000000eb0043
:1004f0000a003700606ce10004003a00005deb0088
:100500008b05e900fdff3e00040037006168e10053
:10051000010032000086eb000b00070019c7ba008b
:100520001905ba000e04e00003003a000a00e000da
:10053000e0ff3a0000000600fe07b2009e018800be
:100540008a047800f5ff3700395dba008b05e900b1
:100550000c003200295dba008b05e900080032006a
:100560000c00e00003003a00e284440032a0b40032
:10057000f5ff370019ddba008b05e900faff3a00f4
:100580008904e800e184440032a0b40000000600c1
:100590000040da000000fe000000050003f0a200a9
:1005a000889fbe008a9fbe008c1f780082000700d3
:1005b000890033006450e1004f0032006420e10004
:1005c0005200320003826c0007003b000905d00096
:1005d0000306d000820f54000c065d0002003900b3
:1005e00002003200890178000306780085825500f8
:1005f00004003d000003fd008103fd008502ea00c8
:100600008b854200840f720002003b0060001000e6
:10061000e08018006011b8000005eb007a28e100c6
:100620000a00390006007800c75ddd00f707b20058
:10063000878075002d003700828171000a017800e3
:10064000610560008180d1000080d3008502e9004f
:10065000f9ff3b00060440008784480002003b008d
:1006600060041400e0841c000988a3000700320025
:100670008a81710082817100610164008904d10066
:100680000884d3008b05e800170037000978a30021
:1006900013003a000b00e000130034008b05e90062
:1006a0000804440089844c000a4474000978a300bb
:1006b0000d003a000b00e000070034008b05e90054
:1006c0000804440089844c0001003a000b0020001b
:1006d0000978a300f7ff32000001eb0002003700a9
:1006e000828171000a0178000d0007000cf0a7005c
:1006f00001f0a000410037006420e10002003a0050
:10070000838f6c00410033000801be000200be0070
:100710003a0037004f89de0082017800720037000e
:1007200081002000618055000b003d000b0020007f
:1007300061fe2f000100e1001d0034008281710084
:10074000610164008904d1000884d3000000e8003e
:10075000faff3a007100200061006400030070009d
:10076000020060000900320061044400e0844c0093
:100770000988a500050032008b05e8006808e10043
:1007800002003a008904d1000884d300f20f20004f
:100790000258e10005003d00c75ddd00f907b20029
:1007a0008980750008007800000006000bf827001b
:1007b0008b007800000005000004be0089000700df
:1007c0000003be000405be000200be008500070055
:1007d000844f7500000006000200be006450e10076
:1007e000050036006420e100020036000968a3001d
:1007f00001003a000800be000160a0004f0678002a
:100800004f05be004f04be0000000600f0ff2f00a1
:10081000f1ff2700f9ff3700889fbe008a9fbe00c6
:100820008c1f7800e4ff0700ebff330003866c00a9
:100830006450e100240032006420e100270032000f
:100840006150e100220032006120e100210032000d
:100850008b854200eb07b1000134b800003ab800c4
:100860000804420089844a00013ab8000030b80008
:100870008880400009014a00040033000000400065
:1008800081804800020149008b05e900c909dd00ab
:10089000830170000100320013002000c814de0044
:1008a0004814dd004709de001200b200c808de006f
:1008b000088470009aff070001f0a1000cf0a70067
:1008c00001f0a000cdff37006120e100cfff320032
:1008d0000801be000200be00f7ff37006150e100d2
:1008e000fcff3a00c9ff3700881f78000304780036
:1008f0000300e00007003d0060001000e0801800e9
:1009000060011900e081190002003b0001f02d0098
:10091000030037000400070008f0a70001f0a00062
:100920004f04780000000600889fbe008a9fbe002a
:1009300000827000040271000482710026003200ff
:100940000004be000200be006011b8006b09200068
:10095000950220000182cf000a0039000541b10054
:100960000082cf00070039000541b1000982cf00a5
:10097000040039000541b1000882cf0001003900b0
:100980000541b10005425200120032000a003b004e
:1009900082817100610164008100d1000080d30078
:1009a0008984d3000884d3008b05e8000442e80062
:1009b000f7ff3a00070037000804440089844c0020
:1009c00000004800818048008b05e9000442e900ee
:1009d000f9ff3a0052ff07004f05be004f04be006a
:1009e00000000600c70ade00f107b200f50fb200f2
:1009f00008003200e1cf4200020032000170a00086
:100a000024000500810f7000010032000408050079
:100a100044000500810f700002003a001400050038
:100a20008502e9000000400081c04800fcff3b0057
:100a30000170a0002400050080017800808f500024
:100a40000900310002824000800f5200060036008b
:100a50008401780082004000c36078000201e90050
:100a6000fdff3a00000006000200e0000300320033
:100a7000b15978000201e900fbff370000000600d1
:020000040000fa
:100a80000000fa0040c02000700888009108800033
:100a9000f0fc2f0000806000900888000080fa00c1
:100aa000000006000000fa005001200040118800fc
:100ab0000111800090ff2f0000806000001188006d
:100ac0002002a9002082a9002062a90021e2a8003a
:100ad0002342a8000080fa00000006001600fa0079
:100ae00070079800010f9800120f9800230f9800cc
:100af0000000eb00000f7800970037009e007800a0
:100b0000400220000088b90000007800ae08900084
:100b100000804000b0089000200890000002be0055
:100b200005f0a2007e0090008e0890000001be003b
:100b30000400be0038ff0700200798003107980026
:100b40000000eb0010079800220037009e0078009c
:100b5000400220000088b90000007800ae08900034
:100b6000808040001e0090000000e800650040000a
:100b70004200dd00008040001002be009e007800b0
:100b8000400220000088b90000007800ae08900004
:100b9000808040001e0090004200dd000080400088
:100ba0001000be000001be000400be001aff0700d6
:100bb0000001be002e009000be00900077fe0700ee
:100bc00020079800310798001e0090000000e80000
:100bd000100798001e009000e10f5000dbff34006a
:100be0009e007800400220000088b90000007800d4
:100bf000ae08900000804000d000900040009000bf
:100c00002e019000be01900003ff070040079800ee
:100c1000510798000000eb001007980022003700f1
:100c20009e007800400220000088b9000000780093
:100c3000ae089000808040001e0090000000e80098
:100c40000080e8004200dd00008040001002be008d
:100c50009e007800400220000088b9000000780063
:100c6000ae089000808040001e0090004200dd0031
:100c7000008040001000be000001be000400be0065
:100c8000e5fe07000001be004e009000de0090006f
:100c900043fe070040079800510798001e0090008f
:100ca0000000e800100798001e009000e10f5000bf
:100cb000dbff34009e007800400220000088b9006d
:100cc00000007800ae089000008040009010900076
:100cd000001090004e019000de019000cefe070053
:100ce00070079800010f98009e00780040022000d5
:100cf0000088b90000007800ae0890000080400035
:100d0000800178009e007800400220000088b90031
:100d100000007800ae0890000080400064004000b1
:100d2000420020008300780043ff07009e00780007
:100d3000400220000088b90000007800ae08900052
:100d4000008040002e019000be019000220098001b
:100d5000330098001e0fe8001e007800e20f5000dc
:100d600066ff34006e004700600798000080fa00bc
:100d700000000600e600fa00dd0007000080eb003e
:100d8000601988003eff0700b4000700ee0047002e
:100d90006b0009008018eb000000200001f8230020
:100da000300f9800410f98000000200001f82b0040
:100db000700f9800011798000000200001f8230030
:100dc000101798002117980040372f0051fe2b0074
:100dd000301798004117980020b92400d1f723005c
:100de000501798006117980000582d0091c22300f9
:100df00070179800011f98000000200001f82300e0
:100e0000501f9800611f98000000200001f82b007f
:100e100010279800212798000000200001f82300e7
:100e2000302798004127980060f42e0071fe2b00b7
:100e30005027980061279800105d2600d1f7230005
:100e400070279800012f980000582d0091c22300b0
:100e5000102f9800212f98000000200001f8230097
:100e6000702f9800013798000000200001f82b0037
:100e700030379800413798000000200001f8230027
:100e8000503798006137980000542c0051fe2b0019
:100e900070379800013f980080842b00a1f7230051
:100ea000103f9800213f9800e0702f0081c223007e
:100eb000303f9800413f98000000200001f82300d7
:100ec00010879800218798000000200001f82b006f
:100ed00050879800618798000000200001f82300e7
:100ee00070879800018f980050c72c0091fd2b004f
:100ef000108f9800218f9800e02d2b00c1f7230060
:100f0000308f9800418f9800d0df2600f1c4230075
:100f1000508f9800618f98000000200001f8230096
:100f200030979800419798000000200001f82b00ae
:100f300070979800019f98000000200001f823009e
:100f4000109f9800219f980080272b00c1fd2b0047
:100f5000309f9800419f9800d01c2d00c1f72300be
:100f6000509f9800619f9800d0df2600f1c42300b5
:100f7000709f980001a798000000200001f823004e
:100f800050a7980061a798000000200001f82b00ee
:100f900010af980021af98000000200001f8230056
:100fa00030af980041af980050512e0091fd2b00ba
:100fb00050af980061af980070ee280091f72300c1
:100fc00070af980001b79800b0312200e1c423004f
:100fd00010b7980021b7980001003700000000000a
:100fe000310007000000e000fcff32003500070080
:100ff000cf80de00c7fd070010079800210798008a
:101000000000eb00000f7800100037006e01470071
:101010009e007800c00620000088b900000078001b
:10102000800041001e0078004200dd00660147009c
:101030000000410081017800000178001e0090004e
:10104000ae009000a5fe07001e0fe8001e0078000d
:10105000e10f5000edff3400e1ff37000000fa001f
:101060002143a90050c0b30024e3b7002043a800e7
:101070003003a8002c03a90001198000f0f12f0013
:10108000008060000060a0000019880021e3a80033
:101090000080fa00000006000000fa002023a900ea
:1010a0000080fa00000006000000fa00001980002d
:1010b00000407800614060000080fb000080fa0082
:1010c000000006000000fa000019800061006000c6
:1010d0000000e000030032002003a9000018800097
:1010e00001003700000028000080fa000000060020
:1010f0000000fa00e0012000303a8800213a800028
:10110000f0f32f0000806000203a8800213a800030
:1011100000fe2f0000806000203a8800320020008e
:1011200080072000a1092000337420008049780046
:101130008149780082497800120020006004200074
:1011400071052000237420008049780081497800cf
:101150008249780000000000113a8000000027005a
:101160008080600000002300808f5000faff3a006a
:081170000080fa0000000600f7
:020000040000fa
:0200000401f009
:04000c008000000070
:020000040000fa
:0200000401f009
:040010006500000087
:020000040000fa
:0200000401f009
:040014005f00000089
:020000040000fa
:0200000401f009
:04001c00dfff000002
:00000001FF
